:020000040800F2
:1000000010040020A1010008A905000853030008FE
:10001000A50500083D020008510700080000000087
:10002000000000000000000000000000CD050008F6
:100030004102000800000000AB050008E5060008CA
:10004000BB010008BB010008BB010008BB010008A0
:10005000BB010008BB010008BB010008BB01000890
:10006000BB010008BB010008BB010008BB01000880
:10007000BB010008BB010008BB010008BB01000870
:10008000BB010008BB010008BB010008BB01000860
:10009000BB010008BB010008BB010008BB01000850
:1000A000BB010008BB010008BB010008BB01000840
:1000B000BB010008BB010008BB010008BB01000830
:1000C000BB010008BB010008BB010008BB01000820
:1000D000BB010008BB010008BB010008BB01000810
:1000E000BB010008BB010008BB010008BB01000800
:1000F000BB010008BB010008BB010008BB010008F0
:10010000BB010008BB010008BB010008BB010008DF
:10011000BB010008BB010008BB010008BB010008CF
:10012000BB010008BB010008BB010008BB010008BF
:10013000BB010008BB010008BB010008BB010008AF
:10014000BB010008BB010008BB010008BB0100089F
:10015000BB010008BB010008BB010008BB0100088F
:10016000BB010008BB010008BB010008BB0100087F
:10017000BB010008BB010008BB010008BB0100086F
:10018000BB010008BB010008DFF810D000F01AF82E
:100190000048004775070008AFF3008010040020F6
:1001A0000648804706480047FEE7FEE7FEE7FEE711
:1001B000FEE7FEE7FEE7FEE7FEE7FEE7E9060008EA
:1001C00089010008064C074D06E0E06840F0010395
:1001D00094E8070098471034AC42F6D3FFF7D8FFF5
:1001E000E8070008080800081CB50121202000F0DD
:1001F000DDF94FF48070009001208DF8040000209C
:100200008DF806008DF805006946044800F04CF8AA
:100210004FF48071014800F098F81CBD00140240B2
:1002200010B504464FF48071034800F090F8204662
:1002300000F014F810BD00000014024000BFFEE7FB
:100240007047000010B56FF0040000F037FA152079
:100250000149087010BD0000000000200146114A4D
:1002600012784A434FF0E0235A6100229A611A46FD
:10027000126942F001021A6100BF4FF0E0221069DA
:1002800000F001021AB100F48032002AF5D04FF0DC
:10029000E022126922F001024FF0E0231A610022ED
:1002A0009A61704700000020F0B50A460021002343
:1002B000002400BF3DE0012505FA01F3156805EAB9
:1002C00003049C4234D105684F000326BE40B54369
:1002D000056015794E00B54006683543056015790F
:1002E000012D02D01579022D16D185684F00032605
:1002F000BE40B543856055794E00B54086683543AC
:100300008560456801268E40B5434560456896790D
:100310008E40B6B235434560C5684F000326BE40E7
:10032000B543C560D5794E00B540C6683543C56054
:10033000491C1029BFD3F0BD0246002013690B40B1
:100340000BB1012000E0002070474183704701831A
:10035000704700BFFEE7000010B510210D48FFF701
:10036000EBFF08B1012000E000200B4908700846AF
:100370000078012808D10948007828B90846007893
:1003800006490870012010BD034800780349087031
:100390000020F8E7001002400100002005000020C6
:1003A00010B508210D48FFF7C7FF08B1012000E094
:1003B00000200B49487008464078012808D10948B8
:1003C000407828B90846407806494870012010BD99
:1003D00003484078034948700020F8E700100240C5
:1003E000010000200500002010B504210D48FFF792
:1003F000A3FF08B1012000E000200B4988700846E7
:100400008078012808D10948807828B90846807882
:1004100006498870012010BD034880780349887020
:100420000020F8E700100240010000200500002035
:1004300010B501210D48FFF77FFF08B1012000E052
:1004400000200B49C8700846C07848B90948C078F0
:10045000012805D10846C0780649C870012010BDA2
:100460000348C0780349C8700020F8E70000024044
:1004700001000020050000201CB50121102000F023
:1004800095F81C20009000208DF8040001208DF8C4
:10049000070069460948FFF707FF0121084600F0F9
:1004A00085F80120009000208DF8040002208DF8CE
:1004B000070069460248FFF7F7FE1CBD0010024026
:1004C000000002401CB50121202000F06FF84FF41D
:1004D0006060009001208DF8040000208DF8060077
:1004E0008DF8050069460348FFF7DEFE00F046F888
:1004F0001CBD00000014024010B54FF4006102481A
:10050000FFF723FF10BD00000014024010B54FF4A8
:1005100080610248FFF719FF10BD0000001402407F
:1005200010B54FF400710248FFF70FFF10BD000037
:100530000014024010B500F021F84FF400610248A9
:10054000FFF703FF10BD00000014024010B500F0DB
:1005500015F84FF480610248FFF7F7FE10BD000068
:100560000014024010B500F009F84FF40071024881
:10057000FFF7EBFE10BD00000014024010B54FF471
:1005800000710748FFF7E3FE4FF480610448FFF76E
:10059000DEFE4FF400610248FFF7D9FE10BD0000F7
:1005A0000014024000BFFEE77047704729B1064AB9
:1005B00012680243044B1A6004E0034A1268824343
:1005C000014B1A607047000030380240704700004D
:1005D0000CB50020019000903448006840F4803051
:1005E0003249086000BF3148006800F400300090D4
:1005F0000198401C0190009818B90198B0F5A04FDF
:10060000F1D12A48006800F4003010B101200090B8
:1006100001E0002000900098012846D12348403096
:10062000006840F08050214940310860204800684F
:1006300040F440401E4908601C48083000681B49CF
:10064000083108600846006840F400400860084629
:10065000006840F4A05008601648091F0860081F91
:10066000006840F08070091F086000BF0F480068F4
:1006700000F000700028F9D040F205700E490860C3
:100680000A480830006820F0030008490831086073
:100690000846006840F00200086000BF03480830C8
:1006A000006800F00C000828F8D10CBD00380240AA
:1006B0000070004008544007003C0240042808D164
:1006C0004FF0E021096941F004014FF0E02211618F
:1006D00007E04FF0E021096921F004014FF0E0222A
:1006E000116170477047000010B51548006840F46C
:1006F0007000134908601348006840F00100114978
:10070000086000200F49083108600E4800680E4953
:1007100008400C4908600D48091D0860081F006862
:1007200020F48020091F0860002006490C31086071
:10073000FFF74EFF4FF0006001498039086010BD9F
:1007400088ED00E000380240FFFFF6FE1030002484
:1007500000BFFEE702E008C8121F08C1002AFAD154
:1007600070477047002001E001C1121F002AFBD131
:1007700070470000FFF7A6FEFFF77EFEFFF762FD61
:10078000FFF732FD40F2DC542AE0FFF7E5FD18B137
:100790006434FFF7E7FE1CE0FFF702FE10B1FFF73D
:1007A000D5FE16E0FFF720FE10B1FFF7C3FE10E004
:1007B000FFF73EFE68B1FFF7B3FEFFF7A7FEFFF7B6
:1007C0009BFE0848006808B9012000E000200549A8
:1007D000086004480068012802D12046FFF720FD88
:1007E000D3E70000A0824242080800080000002071
:1007F0000C00000054070008140800080C0000203A
:10080000040400006407000800000000000101016A
:0408100000000000E4
:040000050800018965
:00000001FF
