:020000040800F2
:10000000F8090020A10100089D030008FB02000878
:10001000990300083F0200080D08000800000000D6
:100020000000000000000000000000008906000839
:10003000430200080000000065060008A107000850
:10004000BB010008BB010008BB010008BB010008A0
:10005000BB010008BB010008BB010008BB01000890
:10006000BB010008BB010008BB010008BB01000880
:10007000BB010008BB010008BB010008BB01000870
:10008000BB010008BB010008BB010008BB01000860
:10009000BB010008BB010008BB010008BB01000850
:1000A000BB010008BB010008BB010008BB01000840
:1000B000BB010008BB010008BB010008BB01000830
:1000C000BB010008BB010008BB010008BB01000820
:1000D000BB010008BB010008BB010008BB01000810
:1000E000BB010008BB010008BB010008BB01000800
:1000F000BB010008BB010008BB010008BB010008F0
:10010000BB010008BB010008BB010008BB010008DF
:10011000BB010008BB010008BB010008BB010008CF
:10012000BB010008BB010008BB010008BB010008BF
:10013000BB010008BB010008BB010008BB010008AF
:10014000BB010008BB010008BB010008BB0100089F
:10015000BB010008BB010008BB010008BB0100088F
:10016000BB010008BB010008BB010008BB0100087F
:10017000BB010008BB010008BB010008BB0100086F
:10018000BB010008BB010008DFF810D000F01AF82E
:100190000048004731080008AFF30080F80900204C
:1001A0000648804706480047FEE7FEE7FEE7FEE711
:1001B000FEE7FEE7FEE7FEE7FEE7FEE7A50700082D
:1001C00089010008064C074D06E0E06840F0010395
:1001D00094E8070098471034AC42F6D3FFF7D8FFF5
:1001E000540800087408000870B58C1810F8015BFA
:1001F00015F0070301D110F8013B2A1106D110F8C0
:10020000012B03E010F8016B01F8016B5B1EF9D1C3
:100210002B0705D40023521E0DD401F8013BFAE749
:1002200010F8013BCB1A921C03E013F8015B01F8B4
:10023000015B521EF9D5A142D8D3002070BD00BF8A
:10024000FEE7704710B56FF0040000F095FA152036
:100250000149087010BD000000000020F0B50A46FA
:1002600000210023002400BF3DE0012505FA01F331
:10027000156805EA03049C4234D105684F00032643
:10028000BE40B543056015794E00B540066835435C
:1002900005601579012D02D01579022D16D18568DA
:1002A0004F000326BE40B543856055794E00B540EA
:1002B000866835438560456801268E40B5434560B4
:1002C000456896798E40B6B235434560C5684F00A3
:1002D0000326BE40B543C560D5794E00B540C6681B
:1002E0003543C560491C1029BFD3F0BD0183704759
:1002F0000AB1018300E04183704700BFFEE70000C0
:100300001CB50121102000F0AFF91C200090002046
:100310008DF8040001208DF8070069460948FFF7B1
:100320009DFF0121084600F09FF901200090002068
:100330008DF8040002208DF8070069460248FFF797
:100340008DFF1CBD00100240000002401CB50121C1
:10035000202000F089F901208DF804004FF4C060DE
:10036000009003208DF8050000208DF80600012084
:100370008DF8070069460748FFF770FF4FF40071DA
:100380000448FFF7B3FF4FF480610248FFF7AEFF68
:100390001CBD00000014024000BFFEE7704770B5AE
:1003A00000240EE00021204600F0DDF8002504E0E6
:1003B000002000F047F9681CC5B2802DF8DB601CF6
:1003C000C4B2082CEEDB70BD1CB50121202000F06A
:1003D0004BF901208DF8040002208DF805004FF440
:1003E0004060009069460748FFF738FF01229102FC
:1003F0000448FFF77DFF0122D1020248FFF778FF92
:100400001CBD00000014024070B50546002415E034
:100410008020204100EA05024FF400610E48FFF7FA
:1004200067FF012291020C48FFF762FF00224FF4A0
:1004300080610948FFF75CFF601CC4B2082CE7DB51
:10044000012291020448FFF753FF00224FF480611C
:100450000148FFF74DFF70BD0014024010B50122A6
:10046000D1020A48FFF744FF012291020748FFF733
:100470003FFF00224FF400610448FFF739FF0022DC
:100480004FF480610148FFF733FF10BD00140240B4
:1004900010B500224FF400610648FFF729FF012242
:1004A00091020448FFF724FF0122D1020148FFF71F
:1004B0001FFF10BD0014024070B5002406E00025A7
:1004C00000E06D1CB5F57A7FFBD3641CB4F57A7F30
:1004D000F5D3FFF779FFAE2000F0A4F8D52000F0A7
:1004E000A1F8802000F09EF8A82000F09BF83F20A3
:1004F00000F098F8D32000F095F8002000F092F872
:10050000402000F08FF8A12000F08CF8C82000F007
:1005100089F8DA2000F086F8122000F083F88120B4
:1005200000F080F8CF2000F07DF8D92000F07AF8B4
:10053000F12000F077F8DB2000F074F8302000F0B4
:1005400071F8A42000F06EF8A62000F06BF88D2062
:1005500000F068F8142000F065F8AF2000F062F8B1
:10056000FFF71DFF70BD70B505460C4645F0B000A5
:1005700000F058F8102141EA141000F053F804F08C
:100580000F0000F04FF870BD2DE9F04105460E4612
:100590001746721ED206110E6A1E5206100EFFF783
:1005A000E2FF002409E0A7F12001134A02EB011148
:1005B000085D00F047F8601CC4B2082CF3DB721E23
:1005C000D206110E6A1E012303EB4202D0B2FFF7DE
:1005D000CAFF00240BE0A7F12001074A02EB011239
:1005E00004F10801505C00F02DF8601CC4B2082C26
:1005F000F1DBBDE8F0810000010000202DE9F041B1
:1006000007460E461546002407E02A5D3019C1B2A0
:100610003846FFF7B9FF601CC4B2285D0028F4D14A
:10062000BDE8F08110B50446FFF718FF7820FFF70A
:10063000EBFE0020FFF7E8FE2046FFF7E5FEFFF7A0
:1006400027FF10BD10B50446FFF708FF7820FFF71D
:10065000DBFE4020FFF7D8FE2046FFF7D5FEFFF770
:1006600017FF10BD7047000029B1064A1268024307
:10067000044B1A6004E0034A12688243014B1A607B
:100680007047000030380240704700000CB5002071
:10069000019000903448006840F48030324908608E
:1006A00000BF3148006800F4003000900198401C01
:1006B0000190009818B90198B0F5A04FF1D12A48DF
:1006C000006800F4003010B10120009001E000202B
:1006D00000900098012846D123484030006840F03F
:1006E00080502149403108602048006840F4404073
:1006F0001E4908601C48083000681B490831086022
:100700000846006840F4004008600846006840F46D
:10071000A05008601648091F0860081F006840F0D4
:100720008070091F086000BF0F48006800F000706B
:100730000028F9D040F205700E4908600A480830D8
:10074000006820F003000849083108600846006886
:1007500040F00200086000BF03480830006800F065
:100760000C000828F8D10CBD003802400070004091
:10077000195A4007003C0240042808D14FF0E021FC
:10078000096941F004014FF0E022116107E04FF0E8
:10079000E021096921F004014FF0E0221161704766
:1007A0007047000010B51548006840F47000134908
:1007B00008601348006840F00100114908600020FB
:1007C0000F49083108600E4800680E4908400C497E
:1007D00008600D48091D0860081F006820F480208B
:1007E000091F0860002006490C310860FFF74EFF22
:1007F0004FF0006001498039086010BD88ED00E0CD
:1008000000380240FFFFF6FE1030002400BFFEE774
:1008100002E008C8121F08C1002AFAD170477047C9
:10082000002001E001C1121F002AFBD17047000027
:10083000FFF708FDFFF764FDFFF788FDFFF73CFEBB
:1008400003A203210120FFF7D9FE00BFFEE700004D
:10085000414100007408000800000020F405000079
:10086000E8010008E80B0008F4050020040400007B
:1008700020080008011472F84333301C100C0603E2
:10088000912C40C07803112C043F0403212D708863
:10089000FC0829261820FF211E14F008F033E01868
:1008A0004D211C031E11338870000C101E212324BF
:1008B0001927211010160E45E018040225071820EC
:1008C000403D020418E0692C20180707174080F00B
:1008D0008040403F0202010F01022842F01D010149
:1008E000011F04912B80B066B1191D2901913A3086
:1008F000CE492C146018043C6018061D1EE0100838
:100900000810721F0F102020100FF05310F836201F
:10091000203F20203C700808C21E30282422214499
:100920001E3008888848082E1820202011CC3BC093
:10093000203227070424243F241AF8202308084BD8
:1009400019212036E0108888184B0F11101E380826
:1009500008C8382021523F1A702E29608F1C22218E
:1009600021221C90111D31222211901961CAC0C28E
:100970006A80C659081C4020105017010204081054
:10098000204A4001114A04012119152A4032192533
:100990001B0402F21B7048D13AF0501A360F1EC0E9
:1009A00030C828E87028080718272423140B6F2A5A
:1009B000387E280D203C23020227382008F888883A
:1009C0009F4B203FF01BC0303F1B083830191019D7
:1009D000781B08F80F194039201B100F103E88882B
:1009E000E8081010AC23201810112A035E294022B9
:1009F0003829402C221E024019A41809F808203F6B
:100A000021010121252A0852298129424149112E1B
:100A1000C08080807F0E2FF888C0281808501C01E5
:100A200026382F2940292F29801B20301012F81A30
:100A3000F81413203F190229204B30C0601A20748B
:100A4000123F4BE010B06B0F10B029D01AF03019E4
:100A500080220179203F18242438504FC04C8888C8
:100A600070C0140C30204B7088C11738202121220F
:100A70001C3A189F4A188239A049D0112A1F901297
:100A80001F240878881BC838151C07380E60191AEF
:100A90001AF8201114033C0714073C0348140818E3
:100AA00068808068180820302C03032C3020083818
:100AB000C82F5950298F29102F203826212020682F
:100AC0001145FE020202257F4040401A0CE0611CE5
:100AD0000106380B191D42FE191D527F1A0412021D
:100AE00011045A80011930D91D391621180819240A
:100AF0002222223F20AB390F115F3F112020110E1F
:100B000021311A0E104B2011104B88F8102A10B307
:100B100059401A1F3F2B22130F16F0888888181A85
:100B200020D029D1497A21176B949494936039602D
:100B3000190F4C203F21F354809898793059121A9C
:100B4000C02719D1193039311F203F24022D3021FF
:100B50002A0812893069D7294B2903190BC96079F2
:100B6000A019BF2B201FDD390F9C80FFA1E01912B7
:100B700029D03BA0FF0C3950194112208A01C01B1B
:100B80003324012A190F3AE0413952290F392349F8
:100B9000603C103F202C29053F010E3008060170F3
:100BA000291038080F300C030C300F2C49A14E319E
:100BB0002E0E31200C29621D818E70183059D121E2
:100BC0005721302C22213055807C0202443F404086
:100BD00072FF39083C02027C8F5440403FB0080647
:080BE0000101020204040000FF
:040000050800018965
:00000001FF
