:020000040800F2
:1000000000040020A1010008A9010008AB010008BC
:10001000AD010008AF010008B101000800000000B8
:10002000000000000000000000000000B301000814
:10003000B501000800000000B7010008B901000880
:10004000BB010008BB010008BB010008BB010008A0
:10005000BB010008BB010008BB010008BB01000890
:10006000BB010008BB010008BB010008BB01000880
:10007000BB010008BB010008BB010008BB01000870
:10008000BB010008BB010008BB010008BB01000860
:10009000BB010008BB010008BB010008BB01000850
:1000A000BB010008BB010008BB010008BB01000840
:1000B000BB010008BB010008BB010008BB01000830
:1000C000BB010008BB010008BB010008BB01000820
:1000D000BB010008BB010008BB010008BB01000810
:1000E000BB010008BB010008BB010008BB01000800
:1000F000BB010008BB010008BB010008BB010008F0
:10010000BB010008BB010008BB010008BB010008DF
:10011000BB010008BB010008BB010008BB010008CF
:10012000BB010008BB010008BB010008BB010008BF
:10013000BB010008BB010008BB010008BB010008AF
:10014000BB010008BB010008BB010008BB0100089F
:10015000BB010008BB010008BB010008BB0100088F
:10016000BB010008BB010008BB010008BB0100087F
:10017000BB010008BB010008BB010008BB0100086F
:10018000BB010008BB010008DFF810D000F01AF82E
:100190000048004739020008AFF300800004002047
:1001A0000648804706480047FEE7FEE7FEE7FEE711
:1001B000FEE7FEE7FEE7FEE7FEE7FEE70D020008CA
:1001C00089010008064C074D06E0E06840F0010395
:1001D00094E8070098471034AC42F6D3FFF7D8FFF5
:1001E000A0020008B002000800F1190101228A40B3
:1001F00001490A6070470000181402404FF4606023
:10020000014908607047000018140240704702E07E
:1002100008C8121F08C1002AFAD170477047002091
:1002200001E001C1121F002AFBD1704700BF011E6F
:10023000A0F10100FBD170471648006840F0200093
:10024000144908604FF4A80013490860FFF7D6FF6F
:100250001248FFF7EBFF1148FFF7E8FF0F48FFF7E1
:10026000E5FF0E48FFF7E2FF0C48FFF7DFFF0B4802
:10027000FFF7DCFF0DE0002309E01846FFF7B4FFAD
:100280006FF07F40FFF7D2FFFFF7B8FF5B1C032B37
:10029000F3DBF0E73038024000140240FFFF0F00AC
:1002A000B002000800000020000400001E02000848
:040000050800018965
:00000001FF
