:020000040800F2
:1000000000040020A1010008A9010008AB010008BC
:10001000AD010008AF010008B101000800000000B8
:10002000000000000000000000000000B301000814
:10003000B501000800000000B7010008B901000880
:10004000BB010008BB010008BB010008BB010008A0
:10005000BB010008BB010008BB010008BB01000890
:10006000BB010008BB010008BB010008BB01000880
:10007000BB010008BB010008BB010008BB01000870
:10008000BB010008BB010008BB010008BB01000860
:10009000BB010008BB010008BB010008BB01000850
:1000A000BB010008BB010008BB010008BB01000840
:1000B000BB010008BB010008BB010008BB01000830
:1000C000BB010008BB010008BB010008BB01000820
:1000D000BB010008BB010008BB010008BB01000810
:1000E000BB010008BB010008BB010008BB01000800
:1000F000BB010008BB010008BB010008BB010008F0
:10010000BB010008BB010008BB010008BB010008DF
:10011000BB010008BB010008BB010008BB010008CF
:10012000BB010008BB010008BB010008BB010008BF
:10013000BB010008BB010008BB010008BB010008AF
:10014000BB010008BB010008BB010008BB0100089F
:10015000BB010008BB010008BB010008BB0100088F
:10016000BB010008BB010008BB010008BB0100087F
:10017000BB010008BB010008BB010008BB0100086F
:10018000BB010008BB010008DFF810D000F01AF82E
:100190000048004745020008AFF30080000400203B
:1001A0000648804706480047FEE7FEE7FEE7FEE711
:1001B000FEE7FEE7FEE7FEE7FEE7FEE70D020008CA
:1001C00089010008064C074D06E0E06840F0010395
:1001D00094E8070098471034AC42F6D3FFF7D8FFF5
:1001E000880200089802000800F1190101228A40E3
:1001F00001490A6070470000181402404FF4606023
:10020000014908607047000018140240704702E07E
:1002100008C8121F08C1002AFAD170477047002091
:1002200001E001C1121F002AFBD17047002105E047
:10023000002200E0521C002AFCD0491C8142F7D366
:10024000704700000D48006840F020000B4908602E
:100250004FF4A8000A490860FFF7D0FF0CE0002423
:1002600008E02046FFF7C0FF0648FFF7DFFFFFF773
:10027000C5FF641C032CF4DBF1E7000030380240BA
:1002800000140240404B4C0098020008000000207F
:08029000000400001E0200083A
:040000050800018965
:00000001FF
