:020000040800F2
:1000000020040020A10100081B160008B9150008F3
:1000100019160008AD0200083117000800000000A2
:100020000000000000000000000000008116000831
:10003000AF020008000000001D160008831600082B
:10004000BB010008BB010008BB010008BB010008A0
:10005000BB010008BB010008BB010008BB01000890
:10006000BB010008BB010008BB010008BB01000880
:10007000BB010008BB010008BB010008BB01000870
:10008000BB010008BB010008BB010008BB01000860
:10009000BB010008BB010008BB010008BB01000850
:1000A000BB010008BB010008BB010008BB01000840
:1000B000BB010008BB010008BB010008BB01000830
:1000C000BB010008BB010008BB010008BB01000820
:1000D000BB010008BB010008BB010008BB01000810
:1000E000BB010008BB010008BB010008BB01000800
:1000F000BB010008BB010008BB010008BB010008F0
:10010000BB010008BB010008BB010008BB010008DF
:10011000BB010008BB010008BB010008BB010008CF
:10012000BB010008BB010008BB010008BB010008BF
:10013000BB010008BB010008BB010008BB010008AF
:10014000BB010008BB010008BB010008BB0100089F
:10015000BB010008BB010008BB010008BB0100088F
:10016000BB010008BB010008BB010008BB0100087F
:10017000BB010008BB010008BB0100080000000033
:10018000BB010008BB010008DFF810D000F07CF8CC
:1001900000480047E1170008AFF30080200400206A
:1001A0000648804706480047FEE7FEE7FEE7FEE711
:1001B000FEE7FEE7FEE7FEE7FEE7FEE721170008A1
:1001C000890100082DE9F05F0546002092469B4614
:1001D00088460646814640241BE02846414647465D
:1001E000224600F041F853465A46C01A914110D3B6
:1001F00011461846224600F028F82D1A67EB010830
:100200004F4622460120002100F01FF817EB00099D
:100210004E41201EA4F10104DFDC484631462A4647
:100220004346BDE8F09FD2B201E000F8012B491E21
:10023000FBD270470022F6E710B513460A46044683
:100240001946FFF7F0FF204610BD202A04DB203AB4
:1002500000FA02F1002070479140C2F1200320FA19
:1002600003F3194390407047202A04DB203A21FA17
:1002700002F00021704721FA02F3D040C2F12002BF
:100280009140084319467047064C074D06E0E06868
:1002900040F0010394E8070098471034AC42F6D3CD
:1002A000FFF776FF3CAA02085CAA0208FEE7704747
:1002B00010B500F07FFF00EE100ADFED050A0548DB
:1002C000B8EE400A80EE801A80ED001A10BD0000E2
:1002D0000024F44A0800002070B504464FF47A75F3
:1002E00002E0284600F004F8641EFAD270BD000057
:1002F00070B5144D044695ED000AB5EEC00AF1EE56
:1003000010FA01D1FFF7D4FF00EE104A95ED001A64
:10031000F8EE400A80EE810A01F01CFABCEEC00A39
:100320004FF0E02010EE102A81696FF07F4483695E
:100330008B42836901D8CB1A01E0E31A0B44934244
:10034000F5D370BD0800002010B514460B460246D8
:1003500000F0EAF82046BDE8104000F0B5BC00000F
:100360002DE9F041141A069D5E1A74432F0AEEB26D
:1003700000F0DAF80E4D01225102284600F0D6FDB9
:100380004FF4006800224146284600F0CFFD05E00A
:10039000384601F045F9304601F042F9641EF7D2C3
:1003A00041462846BDE8F041012200F0BFBD0000F3
:1003B00000080240F0B587B014216846FFF73AFF05
:1003C00012480026016841F0040101600068104FE6
:1003D00000F00400059002204FF47864012503909A
:1003E00069463846CDE9004500F0A8FC01222146C7
:1003F000384600F09BFD2020CDE9000669460295B5
:10040000384600F09BFC07B0F0BD000030380240D9
:100410000008024010B50446FFF7CCFF00F032F8A8
:10042000012000F069FC7D2000F076FC112000F036
:1004300063FC7D2000F070FC3A2000F05DFC55204C
:1004400000F02CFC512000F057FCFF2000F026FCAF
:10045000532000F051FC402000F020FCB12000F0BF
:100460004BFC002000F01AFC2046BDE8104000F0D4
:1004700021B80246012000E05043491EC9B2FBD218
:100480007047000070B50A4D4FF480640022214689
:10049000284600F04BFD052000F03EFC01222146DD
:1004A000284600F043FDBDE870402D2000F034BC2C
:1004B000000802400C21B0FBF1F210B501FB120064
:1004C000184CF0214FF4A0722070A8B1062813D068
:1004D000032814D0092812D000206080A080362084
:1004E00000F00AFC207868B103280DD0062801D05E
:1004F000092814D0482008E06180A280EFE76280DC
:10050000A180ECE7882000E0282000F0C7FB29202C
:1005100000F0F2FBBDE810400A2000F0FDBBE8202F
:10052000F3E70000000000202DE9F04104461D46DD
:1005300016460F462A2000F0DFFB204600F0C4FBE1
:10054000304600F0C1FB2B2000F0D6FB384600F00F
:10055000BBFB284600F0B8FBBDE8F0412C2000F0C2
:10056000CBBB00002DE9FF4F81B00446DDF83C9085
:1005700000904FEA59074FF00008780700D001209B
:1005800000EBD70000FB09FB203AD0B203900298A1
:1005900002994844401E83B2E019401E82B22046B0
:1005A000FFF7C2FF002553E0B9F10C0F2AD0B9F1D3
:1005B000100F2ED0B9F1180F2ED0B9F1200F49D15C
:1005C0002749039801EB8010002610F805A0109829
:1005D00000284FF0010000FA06F000EA0A0022D0DD
:1005E00020B12046049A0299FFF7AEFE641C0098E1
:1005F000A4B2201AB84225D10298009C401C80B2B7
:10060000029023E00398174900EB400001EB8000C3
:10061000DAE71549039803E00398144900EB40001A
:1006200001EB0010D0E708B1049800E00E9800F04C
:100630004BFB08F10100C0B2B0FBF7F1804607FBAD
:10064000118050B1761CF6B2082EC0D36D1CADB22D
:100650005D45A9D305B0BDE8F08F4FF00008F5E780
:1006600030350008FC180008701D000860230008E1
:100670002DE9FE4F9946DDE90D4615468A460746A7
:10068000DDF8308014E00C2C17D0102C20D0182C62
:1006900029D0202C0FD1CDF80080CDE901464B4662
:1006A0002A465146384600F0A9F9381987B2ED1CA0
:1006B00028780028E7D1BDE8FE8FCDF80080CDE98D
:1006C00001464B462A465146384600F017F8ECE7FB
:1006D000CDF80080CDE901464B462A4651463846C2
:1006E00000F08CF8E1E7CDF80080CDE901464B46FB
:1006F0002A465146384600F001F9D6E72DE9FF4F6A
:1007000083B00446DDF8448001904FF000095FEAB1
:10071000487001D0012100E0002101EBD80000FB6E
:1007200008FB05200026029006EBC60000EB400106
:100730003148059A435C1278934252D108440090A4
:1007400041780598407881424BD10098817805988E
:100750008078814245D1049804994044401E83B278
:1007600004EB0800401E82B22046FFF7DDFE0027A2
:1007700035E00098002500EB070A12989AF803105C
:1007800000284FF0010000FA05F001EA000111D045
:1007900021B12046069A0499FFF7D6FD641C019802
:1007A000A4B2211A414514D10498019C401C80B286
:1007B000049012E009B1069800E0109800F084FA65
:1007C00009F10100C0B2B0FBF8F2814608FB1290BB
:1007D00078B16D1CEDB2082DCFD37F1CFFB25F4501
:1007E000C7D3761C0298B6B286429DD307B0BDE847
:1007F000F08F4FF00009F0E7F04C00082DE9FF4FB3
:1008000083B00446DDF8448001904FF000095FEAB0
:10081000487001D0012100E0002101EBD80000FB6D
:1008200008FB052000260290C6EBC60000EB800105
:100830003148059A435C1278934252D108440090A3
:1008400041780598407881424BD10098817805988D
:100850008078814245D1049804994044401E83B277
:1008600004EB0800401E82B22046FFF75DFE002721
:1008700035E00098002500EB070A12989AF803105B
:1008800000284FF0010000FA05F001EA000111D044
:1008900021B12046069A0499FFF756FD641C019881
:1008A000A4B2211A414514D10498019C401C80B285
:1008B000049012E009B1069800E0109800F004FAE4
:1008C00009F10100C0B2B0FBF8F2814608FB1290BA
:1008D00078B16D1CEDB2082DCFD37F1CFFB25F4500
:1008E000C7D3761C0298B6B286429DD307B0BDE846
:1008F000F08F4FF00009F0E7774D00082DE9FF4F2A
:1009000083B00446DDF8448001904FF000095FEAAF
:10091000487001D0012100E0002101EBD80000FB6C
:1009200008FB052000260290C6EB061000EB8001B4
:100930003148059A435C1278934252D108440090A2
:1009400041780598407881424BD10098817805988C
:100950008078814245D1049804994044401E83B276
:1009600004EB0800401E82B22046FFF7DDFD0027A1
:1009700035E00098002500EB070A12989AF803105A
:1009800000284FF0010000FA05F001EA000111D043
:1009900021B12046069A0499FFF7D6FC641C019801
:1009A000A4B2211A414514D10498019C401C80B284
:1009B000049012E009B1069800E0109800F084F964
:1009C00009F10100C0B2B0FBF8F2814608FB1290B9
:1009D00078B16D1CEDB2082DCFD37F1CFFB25F45FF
:1009E000C7D3761C0298B6B286429DD307B0BDE845
:1009F000F08F4FF00009F0E7264E00082DE9FF4F79
:100A000083B00446DDF8448001904FF000095FEAAE
:100A1000487001D0012100E0002101EBD80000FB6B
:100A200008FB05200026029006EB460000EBC611ED
:100A30003148059A435C1278934252D108440090A1
:100A400041780598407881424BD10098817805988B
:100A50008078814245D1049804994044401E83B275
:100A600004EB0800401E82B22046FFF75DFD002720
:100A700035E00098002500EB070A12989AF8031059
:100A800000284FF0010000FA05F001EA000111D042
:100A900021B12046069A0499FFF756FC641C019880
:100AA000A4B2211A414514D10498019C401C80B283
:100AB000049012E009B1069800E0109800F004F9E3
:100AC00009F10100C0B2B0FBF8F2814608FB1290B8
:100AD00078B16D1CEDB2082DCFD37F1CFFB25F45FE
:100AE000C7D3761C0298B6B286429DD307B0BDE844
:100AF000F08F4FF00009F0E79D4F00082DE9FF4F00
:100B000083462DED020B83B0DFED210A139F1546BE
:100B100020EE200A7E080024A246BCEEC00A10EE99
:100B2000100A1FFA80F92DE0281B401EC1B20A20CE
:100B3000FFF79FFCB9FBF0F00A21B0FBF1F201FBDB
:100B40001208A81E84420ED1129A00FB06B08DE84E
:100B5000840480B22E22089B0699FFF703FD641CD3
:100B60006D1CE4B2EDB212988DE8810408F13000FA
:100B7000C2B204FB06B080B2089B0699FFF7F2FCF4
:100B8000641CE4B2AC42CFD309B0BDE8F08F0000E2
:100B90000000C8422DE9FF4F83B00026DDE911B8FF
:100BA0001D4682464FEA58073446B1462CE0281BC2
:100BB000401EC1B20A20FFF75CFC0599B1FBF0F0C2
:100BC0000A21B0FBF1F201FB120026B9691E8C422A
:100BD00001DA58B101263030C2B204FB07A0CDF8CB
:100BE00000B0CDE9018980B2109B08E0CDF800B0DB
:100BF00004FB07A0CDE90189109B80B22022049953
:100C0000FFF7B0FC641CE4B2AC42D0D307B0BDE83F
:100C1000F08F2DE9F0471F469046CA19521E93B235
:100C200000EB0802521E002592B2DDF82090FFF77B
:100C30007BFC002611E000240BE019F8150000F001
:100C40002DF809EB4500407800F028F8641CA4B2A8
:100C50006D1CBC42F1D3761CB6B24645EBD3BDE861
:100C6000F0872DE9FE4F9946DDE90D6714468A4667
:100C70000546DDF830800CE0CDF800804B4651464B
:100C80002846CDE90167FFF76DFC05EB560085B2FC
:100C9000641C2278002AEFD1BDE8FE8F70B50122D6
:100CA000084D064654022146284600F03FF93046DA
:100CB00000F0B6FC21462846BDE87040002200F056
:100CC00035B900000008024070B50122094E044603
:100CD00055022946304600F029F9200A00F0A0FC10
:100CE000E0B200F09DFC29463046BDE8704000228D
:100CF00000F01CB90008024010B5044600224FF471
:100D00000071044800F012F92046BDE8104000F0E0
:100D100087BC00000008024070B5044600F00CF9E2
:100D20000546601C02D004480078044400F004F931
:100D3000401BA042FAD370BD0C0000202DE9F84FF3
:100D4000DFF8BCA10022012503264FF00F090AF1AC
:100D5000040BAAF1040E00BF0B6805FA02F423404D
:100D6000A34270D10F7907F00307012F01D0022FA2
:100D700016D187684FEA420806FA08FC27EA0C07F2
:100D8000D1F80CC00CFA08FC4CEA070CC0F808C0FB
:100D90004768A7430C79C4F3001494403C43446073
:100DA0000C79E443A4070AD0C4684FEA420C06FA5F
:100DB0000CF7BC438F6807FA0CF72743C7600C7920
:100DC00004F00304022C12D1D40800EB840CDCF8EC
:100DD00020405707FF0E09FA07F824EA0804D1F863
:100DE000108008FA07F848EA0408CCF82080046864
:100DF0004FEA420C06FA0CF7BC430F7907F00307E1
:100E000007FA0CF7274307604C6814F4403F70D092
:100E10003C4C276847F480472760246822F003078A
:100E200004F480440094384C07EB040CDCF80848C8
:100E300097074FEA177809FA08F7BC43334FB842CF
:100E400002D1002724E054E0314FB84201D10127FC
:100E50001EE0304FB84201D1022719E02E4FB842B0
:100E600001D1032714E02D4FB84201D104270FE030
:100E70002B4FB84201D105270AE02A4FB84201D1D1
:100E8000062705E0284FB84201D1072700E00827D0
:100E900007FA08F72743CCF80878DAF800405746F5
:100EA000D1F804C09C435FEACC2C00D51C433C60C5
:100EB000DBF800405F46D1F804C09C435FEA8C2C0D
:100EC00000D51C433C60DEF800407746D1F804C0F2
:100ED0009C435FEA8C3C00D51C433C60084F083FB4
:100EE0003C68D1F804C09C435FEACC3C00D51C436D
:100EF0003C60521C102AFFF42FAFBDE8F88F0000B1
:100F0000083C0140443802400030014000000240EB
:100F10000004024000080240000C024000100240A1
:100F20000014024000180240001C02400AB1816116
:100F300070470904FBE70000014880687047000023
:100F40000C000020024881680278114481607047DB
:100F50000C0000200B4810B5016841F400710160DD
:100F6000016841F480610160016841F480710160B1
:100F7000032000F073F80F2000F006F800F024F8CA
:100F8000002010BD003C024070B50D4D04464FF4EA
:100F90007A712878B1FBF0F00A490968B1FBF0F0EA
:100FA00000F0F6FA48B9102C07D200222146501E54
:100FB00000F034F800206C6070BD012070BD0000AE
:100FC0000C00002018000020134808B5016841F00B
:100FD00001010160016801F001010091016841F027
:100FE00080010160006800F0800000900A48143021
:100FF000016841F480410160006800F48040009085
:1010000005481030016841F080510160006800F02F
:101010008050009008BD000030380240F0B40E4B04
:101020001B680C46C3F30223C3F10705042D00D946
:101030000425191D072901D2002300E0DB1E01262B
:1010400006FA05F1491E214099409E40761E164041
:101050003143F0BC00F06DBB0CED00E0064900F040
:10106000070208684FF6FF03184040EA0220034ACF
:1010700010430860704700000CED00E00000FA0526
:101080002DE9F0470E46050065D0DFF81481D8F849
:101090000000F7B200F00700B04207D288F80070F5
:1010A000D8F8000000F00700B04254D128683D4C49
:1010B000810712D5400703D5206840F4E050206036
:1010C0002878000703D5206840F46040206020683D
:1010D000A96820F0F000084320602878C0072DD0D0
:1010E000304968680839012812D0022813D0032833
:1010F00011D00968890700292DDA216821F0030140
:1011000001432160FFF718FF814641F2883A0EE063
:1011100009688903EFE709688901ECE7FFF70CFF2D
:10112000A0EB0901514502D90320BDE8F0872068F2
:10113000696800F00C00B0EB810FEFD1D8F8001017
:10114000404601F00701B14207D90770006800F07E
:101150000700B04201D00120E7E72878400705D515
:101160002068E96820F4E0500843206028780007F0
:1011700006D52068296920F4604040EAC10020605B
:1011800000F01EF82168084AC1F30311515CC84001
:101190000649086006480068FFF7F6FE0020C4E72D
:1011A000003C0240083802402CAA02081800002027
:1011B000100000200148006870470000180000205F
:1011C000154810B5006810F00C02144813D01449EB
:1011D000042A0FD0082A0ED10F4C241F226823683E
:1011E00002F03F025B0207D52068C0F38810A0FB25
:1011F000010106E0084610BD2168C1F38811A1FB7A
:1012000000010023FEF7DEFF2168C1F30141491C04
:101210004900B0FBF1F010BD083802400024F40092
:1012200040787D012DE9F84F04006ED02078DFF87A
:101230004C93C007A9F104054AD009F104000168E4
:10124000C1F38101012908D00068C0F381000228A0
:101250000AD1D9F80000400206D52868800337D5A6
:1012600060680028E1D033E06068B0F5803F10D0BE
:10127000B0F5A02F286810D020F4803028602868AE
:1012800020F4802028606068A8B1FFF755FE06466C
:101290000DE0286840F48030F4E740F480202860B6
:1012A000F7E700BFFFF748FE801B642873D8286863
:1012B0008003F7D50CE0FFF73FFE064605E000BFD0
:1012C000FFF73AFE801B6428F0D828688003F7D423
:1012D0002078DFF8AC8280074FF0000A3ED5A7489F
:1012E000001D016811F00C0F08D00068C0F38100E8
:1012F00002280BD1D9F80000400207D428688007E3
:1013000016D5E068012800D112E033E1E068B8B1F9
:101310000120C8F80000FFF70FFE064605E000BFF9
:10132000FFF70AFE801B0228C0D828688007F7D57F
:101330002868216920F0F80040EAC10028600DE02B
:10134000C8F800A0FFF7F8FD064604E0FFF7F4FD3B
:10135000801B02281FD828688007F7D42078000750
:1013600022D5864F87486169703771B101210160CC
:10137000FFF7E2FD064604E0FFF7DEFD801B0228D2
:1013800009D838688007F7D50EE0C0F800A0FFF74D
:10139000D3FD064605E082E0FFF7CEFD801B022864
:1013A0007DD838688007F7D42078400768D5DFF803
:1013B000CCB100270BF13C0BDBF80000C0000BD4D4
:1013C000DBF8001041F08051CBF80010DBF8000092
:1013D000012700F0805000906B4E3068C00510D49B
:1013E000306840F480703060FFF7A6FD009005E0A3
:1013F000FFF7A2FD0099401A022850D83068C005B6
:10140000F6D55E4EA0686C3601280FD005283068EE
:1014100010D020F001003060306820F0040030600F
:10142000A068B8B1FFF788FD00900FE0306840F089
:101430000100F4E740F004003060F7E7FFF77CFDBF
:101440000099411A41F28830814266D8306880079D
:10145000F4D50EE0FFF770FD009007E0FFF76CFD9C
:101460000099411A41F28830814256D8306880078D
:10147000F4D42FB1DBF8001021F08051CBF800102C
:10148000A069C8B33D49091D0968C1F3810102295A
:101490004AD00228504607D0C8F8600000E03CE07F
:1014A000FFF74AFD04463BE04746C8F86000FFF7F7
:1014B00043FD064605E000BFFFF73EFD801B022806
:1014C0002BD828688001F7D4D4E907010843A16A22
:1014D0002E4A490802EB0141626A41EA821108433F
:1014E00094F82C1040EA0161C9F800100120386618
:1014F000FFF722FD044606E03EE000BFFFF71CFDBB
:10150000001B022809D828688001F7D534E000BF05
:10151000FFF712FD001B022802D90320BDE8F88F57
:1015200028688001F4D427E00128F7D0D9F800001A
:10153000E26900F4800191421CD1226A00F03F016F
:10154000914217D147F6C071626A0140B1EB821F28
:1015500010D1A26A4FF0FF3300F4403103EB520286
:10156000B1EB024F06D194F82C1000F07060B0EB94
:10157000016F01D00120D1E70020CFE704380240FD
:1015800000004742800E4742007000400000FFFF0D
:1015900010B5401EB0F1807F01D3012010BD4FF087
:1015A000E02460610F21601700F0C3F80020A06103
:1015B00007202061002010BDFEE7000000B587B0C5
:1015C00014216846FEF736FE10480021026842F0FA
:1015D00001020260026802F001020592026842F014
:1015E00002020260006800F0020005900320CDE9CD
:1015F00000010120029069460548FFF79FFB6946FC
:101600000448FFF79BFB07B000BD000030380240E4
:101610000000024000040240FEE7FEE770470000C1
:101620002DE9F041154E05464FF400680022414671
:101630003046FFF77BFC0024B7150022802130469E
:10164000FFF774FC280601D5012200E0002239468C
:101650003046FFF76BFC012280213046FFF766FC25
:101660006806641C050EE4B2082CE6D341463046F9
:10167000BDE8F0410122FFF759BC0000000802401C
:101680007047FFF75FBC000030B593B0302168466B
:10169000FEF7D0FD14210CA8FEF7CCFD1E48002556
:1016A000016841F080510160006800F080501190A5
:1016B0001A48016841F4804101600068022400F486
:1016C0008040119001200090000401908001CDE93C
:1016D0000640082008904FF4A870CDE909040420C2
:1016E0000B906846FFF79EFD08B172B6FEE70CA9A5
:1016F0000F2081E831004FF4A0500F904FF480503C
:10170000109005210CA8FFF7BBFC002801D072B691
:10171000FEE713B030BD00004038024000700040CA
:101720000248016841F470010160704788ED00E0F3
:10173000FEE70907090E002804DB00F1E02080F82D
:101740000014704700F00F0000F1E02080F8141D35
:101750007047000010EE100AC0F3C7517F391729F7
:10176000A8BF7047DFED140A002970EE200A0CDADA
:10177000F5EEC00AF1EE10FA1ADD0028C8BF4FF0EE
:101780007E50B8BF4FF0004012E00C4A22FA01F23E
:10179000104208BF7047F5EEC00AF1EE10FA07DDFF
:1017A000002804DD4FF4000323FA01F108449043BC
:1017B00000EE100A70470000CAF24971FFFF7F0077
:1017C00002E008C8121F08C1002AFAD1704770470A
:1017D000002001E001C1121F002AFBD17047000068
:1017E0000EB5FFF7B7FBFFF74FFFFEF761FD0C20CB
:1017F000FEF710FEFFF7E2FE0024334FDFF8CC8047
:1018000000943B88B8F8002021462046FEF7A8FD4A
:101810004FF478462E4818250096CDE90145027808
:1018200005230A217820FFF7B5F9CDE900454FF6E9
:10183000FF7328A20A2117200294FEF719FFCDE9B1
:101840000045334627A2282118200294FFF709FA01
:10185000CDE90045334625A2462118200294FFF722
:1018600000FA0096CDE901450323B8F800202821AD
:101870007820FFF78FF90096CDE9014503233A88D8
:1018800046217820FFF786F9334604229FED190A96
:1018900064211420CDE90045FFF730F941F288308A
:1018A000FEF71AFD144800903B884FF4A070834265
:1018B00000D90346B8F80020F02A00D9F022002110
:1018C0000846FFF7A6F9FEE704000020020000200A
:1018D00000000020E4B8ADE699AFE59BADE794B514
:1018E000E5AD900057696474683A0000486569671F
:1018F00068743A00BD5252412C52000800000000AA
:1019000000000000000000000000040404040400C3
:101910000004000014140A00000000000000000091
:1019200000000A0A1F0A0A1F0A0A000000040E1516
:1019300005060C14150E0400000012150D152E2CB2
:101940002A1200000000040A0A36151529160000A4
:10195000020201000000000000000000100808045E
:101960000404040408081000020404080808080815
:101970000404020000000004150E0E15040000000F
:1019800000000008083E08080000000000000000F9
:10199000000000000202010000000000003F000003
:1019A0000000000000000000000000000002000035
:1019B00000201010080804040202010000000E11AB
:1019C00011111111110E000000000406040404049A
:1019D000040E000000000E1111080402011F000097
:1019E00000000E11100C1010110E00000000080C69
:1019F0000C0A091F081C000000001F01010F111034
:101A0000110E000000000C12010D1311110E000048
:101A100000001E10080804040404000000000E1159
:101A2000110E1111110E000000000E1111191610E7
:101A3000090600000000000004000000000400008F
:101A40000000000000040000000404000000100872
:101A50000402020408100000000000003F003F00E4
:101A6000000000000000020408101008040200003A
:101A700000000E11110804040004000000001C22E4
:101A8000292D2D1D221C0000000004040C0A0A1E32
:101A90001233000000000F12120E1212120F00007B
:101AA00000001E1101010101110E000000000F12C3
:101AB00012121212120F000000001F120A0E0A0268
:101AC000121F000000001F120A0E0A020207000087
:101AD00000001C1201013911120C00000000331229
:101AE000121E12121233000000001F04040404042A
:101AF000041F000000003E0808080808080809073D
:101B0000000037120A060A1212370000000007020E
:101B100002020202223F000000003B1B1B1B1515A6
:101B20001535000000003B1216161A1A1217000095
:101B300000000E1111111111110E000000000F1202
:101B4000120E02020207000000000E1111111117FF
:101B5000190E180000000F12120E0A1212370000A0
:101B600000001E1101060810110F000000001F15D3
:101B700004040404040E00000000331212121212B6
:101B8000120C000000003312120A0A0C04040000B8
:101B90000000151515150E0A0A0A000000001B0AA0
:101BA0000A04040A0A1B000000001B0A0A0A0404B3
:101BB000040E000000001F0908040402121F0000A8
:101BC0001C0404040404040404041C0000020204B1
:101BD00004040808081010000E080808080808087F
:101BE00008080E00040A00000000000000000000C9
:101BF00000000000000000000000003F02040000A0
:101C0000000000000000000000000000000C121C9A
:101C1000123C000000030202020E1212120E00001B
:101C200000000000001C1202120C0000001810102E
:101C3000101C1212123C000000000000000C121ECA
:101C4000021C000000182404041E0404041E0000EA
:101C500000000000003C120C021C221C00030202C7
:101C6000020E1212123700000004040000060404E1
:101C7000040E000000080800000C08080808080707
:101C800000030202021A0A060A13000000070404F5
:101C900004040404041F000000000000000F1515D8
:101CA0001515000000000000000F1212123700008E
:101CB00000000000000C1212120C000000000000D6
:101CC000000F1212120E020700000000001C121278
:101CD000121C103800000000001B06020207000062
:101CE00000000000001E020C101E00000000000496
:101CF000041E0404041C000000000000001B12125B
:101D0000123C000000000000001B0A0A040400004E
:101D1000000000000015150E0A0A00000000000077
:101D2000001B0A040A1B000000000000003312120E
:101D30000C08040300000000001E0804041E00003C
:101D400018080808080C08080808180008080808F7
:101D5000080808080808080806040404040804041D
:101D60000404060016090000000000000000000046
:101D70000000000000000000000000000000000063
:101D800000000008080808080808000018180000EB
:101D900000486C2412000000000000000000000059
:101DA0000000002424247F1212127F12121200005D
:101DB0000000081C2A2A0A0C1828282A2A1C0808AD
:101DC00000000022251515152A58545454220000ED
:101DD0000000000C1212120A76252911916E0000E3
:101DE00000060604030000000000000000000000E0
:101DF00000402010100808080808081010204000B3
:101E00000002040808101010101010080804020046
:101E10000000000008086B1C1C6B08080000000094
:101E200000000000080808087F08080808000000F3
:101E3000000000000000000000000000060604038F
:101E40000000000000000000FE0000000000000094
:101E50000000000000000000000000000606000076
:101E600000008040402020101008080404020200F6
:101E7000000000182442424242424242241800001C
:101E8000000000080E08080808080808083E0000BE
:101E90000000003C4242422020100804427E000024
:101EA0000000003C4242201820404042221C00001A
:101EB000000000203028242422227E2020780000E8
:101EC0000000007E0202021A26404042221C00004E
:101ED000000000382402021A264242422418000060
:101EE0000000007E222210100808080808080000E0
:101EF0000000003C4242422418244242423C00007E
:101F0000000000182442424264584040241C000053
:101F10000000000000001818000000001818000061
:101F20000000000000000008000000000008080495
:101F300000000040201008040204081020400000A7
:101F40000000000000007F0000007F000000000093
:101F500000000002040810204020100804020000C5
:101F60000000003C424246402010100018180000BB
:101F70000000001C225A555555552D42221C0000C8
:101F80000000000808181414243C224242E7000014
:101F90000000001F2222221E22424242221F000075
:101FA0000000007C4242010101010142221C0000AC
:101FB0000000001F2242424242424242221F0000D1
:101FC0000000003F4212121E12120242423F000065
:101FD0000000003F4212121E12120202020700000D
:101FE0000000003C2222010101712122221C00007C
:101FF000000000E7424242427E42424242E7000085
:102000000000003E0808080808080808083E00000C
:102010000000007C10101010101010101010110F84
:102020000000007722120A0E0A1212222277000004
:10203000000000070202020202020202427F0000C8
:1020400000000077363636362A2A2A2A2A6B000004
:10205000000000E346464A4A52525262624700007C
:102060000000001C2241414141414141221C00002D
:102070000000003F424242423E02020202070000CC
:102080000000001C2241414141414D53321C60007F
:102090000000003F4242423E1212222242C700008C
:1020A0000000007C4242020418204042423E0000F0
:1020B0000000007F4908080808080808081C0000FC
:1020C000000000E74242424242424242423C00009B
:1020D000000000E7424222242414141808080000DB
:1020E0000000006B4949494955553622222200001B
:1020F000000000E7422424181818242442E70000B6
:10210000000000772222141408080808081C0000A8
:102110000000007E2120101008040442423F00000D
:10212000007808080808080808080808080878005F
:10213000000002020404080808101020202040407B
:10214000001E1010101010101010101010101E0093
:102150000038440000000000000000000000000003
:10216000000000000000000000000000000000FF70
:102170000006080000000000000000000000000051
:10218000000000000000003C4278444242FC000095
:10219000000000030202021A26424242261A0000F0
:1021A0000000000000000038440202024438000031
:1021B00000000060404040784442424264D8000041
:1021C000000000000000003C427E0202423C000091
:1021D000000000F08808087E08080808083E000093
:1021E000000000000000007C22221C023C42423C15
:1021F000000000030202023A4642424242E7000067
:102200000000000C0C00000E08080808083E000042
:102210000000003030000038202020202020221E26
:102220000000000302020272120A16122277000056
:102230000000000E0808080808080808083E00000A
:10224000000000000000007F9292929292B700007E
:10225000000000000000003B4642424242E700000E
:10226000000000000000003C42424242423C0000AC
:10227000000000000000001B26424242221E02070E
:10228000000000000000007844424242447840E0F0
:1022900000000000000000774C040404041F00004C
:1022A000000000000000007C42023C40423E000072
:1022B000000000000008083E080808080830000078
:1022C00000000000000000634242424262DC000065
:1022D00000000000000000E7422424140808000069
:1022E00000000000000000EB494955552222000083
:1022F000000000000000007624181818246E00006A
:1023000000000000000000E7422424141808080719
:10231000000000000000007E22100808447E00003B
:1023200000C0202020202010202020202020C000BD
:10233000101010101010101010101010101010109D
:102340000006080808080810080808080808060019
:102350000C32C2000000000000000000000000007D
:10236000000000000000000000000000000000006D
:10237000000000000000000000000000000000005D
:10238000000000000000000000000000000000004D
:1023900000000000000000006000600060006000BD
:1023A000600060006000400020002000200000006D
:1023B00000000000600060006000000000000000FD
:1023C00000000000600660063003980188004400A9
:1023D00000000000000000000000000000000000FD
:1023E00000000000000000000000000000000000ED
:1023F0000000000000000000100210021002100295
:10240000FE07FE0708020801080108010801FE078F
:10241000FE070401040104010401000000000000A3
:1024200000000000000040004000F00158034C0391
:10243000CC034C0058007000E000C001C001400314
:102440004C035C034C034801F000400040000000D6
:1024500000000000000000000E010A019100910040
:102460009100510051003A00AE03A0025004500404
:10247000480448044804840284030000000000006B
:10248000000000000000000038006C006C006C00D0
:102490006C006C002C0098071C011A0133013301F9
:1024A0006301E300C308C6093C0700000000000008
:1024B000000000000C001C001000100008000400C8
:1024C000000000000000000000000000000000000C
:1024D00000000000000000000000000000000000FC
:1024E00000000000000400020001800080004000A5
:1024F00040002000200020002000200020002000BC
:102500004000400080008000000100020004000044
:10251000000000000200040008001000100020006D
:1025200020004000400040004000400040004000CB
:10253000200020001000100008000400020000002D
:102540000000000000000000000000004000C0008B
:102550004000460C4E0FD001F0015E0F460C4000CB
:1025600040004000000000000000000000000000EB
:10257000000000000000000000000000000040001B
:102580004000400040004000FE0F4000400040007E
:1025900040004000000000000000000000000000BB
:1025A000000000000000000000000000000000002B
:1025B000000000000000000000000000000000001B
:1025C000000000000C001C001000100008000400B7
:1025D00000000000000000000000000000000000FB
:1025E0000000000000000000FE07000000000000E6
:1025F00000000000000000000000000000000000DB
:1026000000000000000000000000000000000000CA
:1026100000000000000000000000000000000000BA
:10262000000000001C001C001C0000000000000056
:102630000000000000040006000200030001000189
:10264000800080004000400060002000200010005A
:102650001000080008000C00040006000200000042
:1026600000000000000000000000F00098010C03D2
:102670000C030606060606060606060606060606F7
:1026800006060C030C039801F00000000000000097
:102690000000000000000000000040007C0060001E
:1026A000600060006000600060006000600060002A
:1026B0006000600060006000FC030000000000009B
:1026C00000000000000000000000F8008401020388
:1026D00006030603000300018001C0006000200023
:1026E0001000080204020602FE03000000000000C1
:1026F000000000000000000000007800C600860115
:10270000860180018001C00070008001000100038B
:102710000003060306038601F80000000000000025
:102720000000000000000000000080018001C001E6
:10273000A001A00190018801880184018201FE0F9F
:102740008001800180018001E0070000000000009E
:1027500000000000000000000000FC030400040072
:10276000040004000400F4008C01040300030003CF
:102770000603060382018401F80000000000000047
:1027800000000000000000000000E00118030C033E
:102790000C0004000600E60116030E0606060606F7
:1027A000060604060C021803F000000000000000FA
:1027B00000000000000000000000F8070C06040202
:1027C0000401000100018000800040004000400042
:1027D0006000600060006000600000000000000019
:1027E00000000000000000000000F8010C030606D5
:1027F000060606060C021C03F000C8010C030606C0
:102800000606060606060C03F001000000000000A4
:1028100000000000000000000000F0000C010C03AC
:10282000060206060606060606078C067806000659
:10283000000300030C018C01780000000000000080
:102840000000000000000000000000000000000088
:1028500000000000E000E000E000000000000000D8
:1028600000000000E000E000E000000000000000C8
:102870000000000000000000000000000000000058
:102880000000000060006000000000000000000088
:1028900000000000000060006000400020002000F8
:1028A00000000000000000000004000200018000A1
:1028B0004000200010000800040008001000200064
:1028C0004000800000010002000400000000000041
:1028D00000000000000000000000000000000000F8
:1028E00000000000FE07000000000000FE070000DE
:1028F00000000000000000000000000000000000D8
:10290000000000000000000004000800100020008B
:10291000400080000001000200040002000180006D
:10292000400020001000080004000000000000002B
:1029300000000000000000000000E0031806040C86
:10294000040C0C0C0C0C00078001400040004000FF
:1029500000000000E000E000E000000000000000D7
:102960000000000000000000E00018030C02CC058D
:1029700064056605A605B604B604B604B604B60238
:10298000E4010C040C021803F00000000000000039
:102990000000000000000000000060006000500027
:1029A000D00090009000880088010801F80104031D
:1029B00004030402020202060F0F000000000000E0
:1029C00000000000000000000000FE008C030C036B
:1029D0000C030C030C038C01FC000C030C020C0612
:1029E0000C060C060C060C03FE01000000000000A3
:1029F00000000000000000000000E00318030C06C7
:102A00000C0404040600060006000600060006008A
:102A100006040C040C021803F00000000000000083
:102A2000000000000000000000007F008C010C038B
:102A30000C030C060C060C060C060C060C060C0609
:102A40000C060C030C038C017F000000000000004A
:102A500000000000000000000000FF030603060461
:102A60000604060086008600FE00860086008600BA
:102A70000600060406040602FF0300000000000032
:102A800000000000000000000000FF030603060431
:102A90000604060086008600FE008600860086008A
:102AA00006000600060006001F00000000000000EF
:102AB00000000000000000000000F00018010C02FF
:102AC0000C0204020600060006000600C60F0603FC
:102AD00006030C030C031803F000000000000000C4
:102AE000000000000000000000000F0F06060606B0
:102AF0000606060606060606FE070606060606067D
:102B000006060606060606060F0F00000000000077
:102B100000000000000000000000FC0360006000F6
:102B200060006000600060006000600060006000A5
:102B30006000600060006000FC0300000000000016
:102B400000000000000000000000F807C000C00006
:102B5000C000C000C000C000C000C000C000C00075
:102B6000C000C000C000C000C000C60066003C003D
:102B700000000000000000000000CF038601C60036
:102B800046002600160036002E006E004600C600E5
:102B900086008601060106038F0700000000000082
:102BA000000000000000000000001F0006000600FA
:102BB00006000600060006000600060006000600E5
:102BC0000600060406040602FF03000000000000E1
:102BD00000000000000000000000070786038603D5
:102BE0008E038E034E034E034A035A035A033A03DD
:102BF0003203320332031203870700000000000093
:102C0000000000000000000000008E0F0C021C02FB
:102C10001C0234023402640264024402C4028402CC
:102C200084038403040304031F0200000000000067
:102C300000000000000000000000F00098010C03FC
:102C40000C02060606060606060606060606060622
:102C500006060C020C039801F000000000000000C2
:102C600000000000000000000000FF000603060650
:102C700006060606060606068603FE000600060091
:102C800006000600060006001F000000000000000D
:102C900000000000000000000000F00098010C039C
:102CA0000C020606060606060606060606060606C2
:102CB00076064C02CC039801F00080070003000068
:102CC00000000000000000000000FF0106030606EF
:102CD0000606060606060603FE004600C600860037
:102CE00086010603060306060F0E00000000000022
:102CF00000000000000000000000F8020C030602C3
:102D0000060206000E003C00F800E0038003000706
:102D10000206020606060C03F00100000000000097
:102D200000000000000000000000FE0762046108CF
:102D3000610860006000600060006000600060008A
:102D40006000600060006000F8010000000000000A
:102D5000000000000000000000001E070C020C0232
:102D60000C020C020C020C020C020C020C020C02F3
:102D70000C020C020C021801F00000000000000020
:102D8000000000000000000000000F070602040120
:102D900004010C010C018800880098009800500084
:102DA00050007000300020002000000000000000F3
:102DB00000000000000000000000F70E6204420462
:102DC0004604460464026402E402E4029C029C019C
:102DD0009801980188018800880000000000000028
:102DE000000000000000000000009E070C01080128
:102DF00018019000B0006000200060006000D0006A
:102E000090008801080104038E0700000000000004
:102E1000000000000000000000000F0F0604040284
:102E20000C0208011801B800B000700060006000DA
:102E30006000600060006000F80100000000000019
:102E400000000000000000000000FC070C02060368
:102E5000020180018000400040002000200010009E
:102E6000180008040C040402FE0300000000000027
:102E700000000000E00320002000200020002000CF
:102E80002000200020002000200020002000200042
:102E9000200020002000200020002000E00300008F
:102EA000000000000000000004000400080008000A
:102EB0001000100010002000200040004000C00062
:102EC00080008000000100010002000200020004F6
:102ED000000000007C004000400040004000400036
:102EE00040004000400040004000400040004000E2
:102EF0004000400040004000400040007C000000D6
:102F000000006000900008010000000000000000C8
:102F100000000000000000000000000000000000B1
:102F200000000000000000000000000000000000A1
:102F30000000000000000000000000000000000091
:102F40000000000000000000000000000000000081
:102F50000000000000000000000000000000FF0F63
:102F600000000000180060000000000000000000E9
:102F70000000000000000000000000000000000051
:102F80000000000000000000000000000000000041
:102F90000000000000000000000000000000000031
:102FA00000000000F0010C030C030003E0031C030D
:102FB0000E03060306038E0B7C0E000000000000CB
:102FC000000000000000000008000E000C000C00D3
:102FD0000C000C00CC013C031C060C060C060C0675
:102FE0000C060C060C021C03E401000000000000AB
:102FF00000000000000000000000000000000000D1
:1030000000000000F0008C018C0186010600060023
:10301000060006020C020C01F00000000000000097
:1030200000000000000000000002C00300030003D5
:103030000003000378038C030C0306030603060356
:103040000603060304038C0778010000000000005B
:103050000000000000000000000000000000000070
:1030600000000000E001180308020C060C06FC0733
:103070000C000C0018041802E00100000000000021
:1030800000000000000000000000C00360063006E1
:1030900030003000FE0130003000300030003000E1
:1030A0003000300030003000FC0100000000000063
:1030B0000000000000000000000000000000000010
:1030C00000000000F007D8068C018C018C019801EB
:1030D000F8000C00FC00CC03060306038E03F80086
:1030E000000000000000000008000E000C000C00B2
:1030F0000C000C00EC011C030C030C030C030C0370
:103100000C030C030C030C039E07000000000000DE
:1031100000000000000000000000600060000000EF
:10312000000040007C006000600060006000600003
:103130006000600060006000FC0300000000000010
:1031400000000000000000000000C001C0010000FD
:1031500000000001F00180018001800180018001F8
:10316000800180018001800180018001CC007C0011
:10317000000000000000000008000E000C000C0021
:103180000C000C008C038C008C004C006C005C006C
:103190008C008C010C010C039E0700000000000055
:1031A000000000000000000040007C0060006000A3
:1031B000600060006000600060006000600060000F
:1031C0006000600060006000FC0300000000000080
:1031D00000000000000000000000000000000000EF
:1031E000000000003707EE066606660666066606FD
:1031F0006606660666066606FF0F00000000000011
:1032000000000000000000000000000000000000BE
:1032100000000000EE011C030C030C030C030C0364
:103220000C030C030C030C039E07000000000000BD
:10323000000000000000000000000000000000008E
:1032400000000000F00098010C03060606060606C2
:10325000060606060C030C03F00000000000000048
:10326000000000000000000000000000000000005E
:1032700000000000EE011C030C060C060C060C06F8
:103280000C060C060C031C03EC010C000C003E00A9
:10329000000000000000000000000000000000002E
:1032A0000000000078028C030C03060306030603EB
:1032B0000603060304038C03780300030003C0071E
:1032C00000000000000000000000000000000000FE
:1032D000000000009F035806380618001800180068
:1032E0001800180018001800FF000000000000007F
:1032F00000000000000000000000000000000000CE
:1033000000000000F0031C030C020C023800F00067
:10331000C003040304038C03FC0100000000000050
:10332000000000000000000000000000200020005D
:1033300030003000FE01300030003000300030003E
:103340003000300030023002E001000000000000D8
:10335000000000000000000000000000000000006D
:10336000000008028E030C030C030C030C030C0377
:103370000C030C030C039C07780100000000000004
:10338000000000000000000000000000000000003D
:10339000000000001E070C0208010801180190003F
:1033A000B000B000600060002000000000000000DD
:1033B000000000000000000000000000000000000D
:1033C00000000000F70E6204460464026402EC028E
:1033D0009C0198019801980108000000000000007D
:1033E00000000000000000000000000000000000DD
:1033F00000000000BC0718011001B0006000600070
:10340000E0009000080108039E0700000000000093
:1034100000000000000000000000000000000000AC
:10342000000000009E0708010801080190009000BC
:10343000B0006000600060002000200024001C003C
:10344000000000000000000000000000000000007C
:1034500000000000FC018401C40044006000200062
:103460003000180208020C03FC01000000000000FC
:1034700000000000000380008000800080008000C9
:10348000800080008000400020004000800080001C
:103490008000800080008000800080000003000029
:1034A000400040004000400040004000400040001C
:1034B000400040004000400040004000400040000C
:1034C00040004000400040004000400040004000FC
:1034D000000000000C001000100010001000100090
:1034E000100010001000200040002000100010000C
:1034F0001000100010001000100010000C00000060
:1035000000001C002204C204800300000000000030
:1035100000000000000000000000000000000000AB
:10352000000000000000000000000000000000009B
:10353000000000000000000000000000000000008B
:10354000000000000000000000000000000000007B
:10355000000000000000000000000000000000006B
:10356000000000000000000000000000000000005B
:1035700000000000000000000000C001C001C00108
:10358000C001C001C001C001800080008000800037
:10359000800080008000000000000000000080012A
:1035A000C003C00380010000000000000000000014
:1035B000000000000000E01CE01CF01E700E380748
:1035C0001803080184000000000000000000000053
:1035D00000000000000000000000000000000000EB
:1035E00000000000000000000000000000000000DB
:1035F000000000000000000000000000201020106B
:10360000201020102010FE7FFE7F100810081008E8
:103610001008100810081008FE7FFE7F0804080438
:103620000804080408040000000000000000000076
:10363000000000000000000000010001C007601948
:10364000103118311839183938017001E001C00300
:103650008007000F001D003900311C311C310C3176
:103660000C11180DE007000100010001000000002E
:103670000000000000000000000000001C103618D0
:103680006308630C63046304630263026301361D11
:103690009C378022806340634063206320633063F3
:1036A00010221836081C0000000000000000000076
:1036B000000000000000000000000000F000980181
:1036C0008C018C018C018C018C00CC007800183EA0
:1036D0001C083608320863046304C304C30383432D
:1036E00006438E26781C0000000000000000000049
:1036F0000000000000001C003C003C0030003000D6
:1037000010000C0006000000000000000000000097
:1037100000000000000000000000000000000000A9
:103720000000000000000000000000000000000099
:103730000000000000000040002000100008000C05
:1037400000040006000300030003800180018001E3
:1037500080018001800180018001000300030003DB
:1037600000060006000C00080010002000400000C9
:1037700000000000000002000400080010003000FB
:1037800020006000C000C000C000800180018001F6
:1037900080018001800180018001C000C000C00064
:1037A000600060003000100008000400020000000B
:1037B0000000000000000000000000000000000009
:1037C00000018003800300011C713C79783DC00733
:1037D0000001C007783D3C791C7100018003800323
:1037E0008001000000000000000000000000000058
:1037F00000000000000000000000000000000000C9
:1038000000000001000100010001000100010001B1
:10381000FC7F000100010001000100010001000126
:103820000000000000000000000000000000000098
:103830000000000000000000000000000000000088
:103840000000000000000000000000000000000078
:103850000000000000000000000000000000000068
:103860001C003C003C003000300010000C00060042
:103870000000000000000000000000000000000048
:103880000000000000000000000000000000000038
:10389000FE7F0000000000000000000000000000AB
:1038A0000000000000000000000000000000000018
:1038B0000000000000000000000000000000000008
:1038C00000000000000000000000000000000000F8
:1038D00000000000000000000000000000001800D0
:1038E0003C003C0018000000000000000000000048
:1038F00000000000000000400060002000300010C8
:1039000000180008000C000400060002000300017B
:1039100080018000C00040006000200030001000E6
:10392000180008000C00040006000200000000005F
:10393000000000000000000000000000C007600C54
:1039400030181830183018200C600C600C600C60B7
:103950000C600C600C600C600C6018201830183083
:103960003018600CC00700000000000000000000DC
:1039700000000000000000000000000000018001C5
:10398000F8018001800180018001800180018001B7
:10399000800180018001800180018001800180011F
:1039A0008001C003F81F00000000000000000000BC
:1039B000000000000000000000000000E007101CF4
:1039C0000818043004300C300C30003000180008A7
:1039D0000004000200018000400020201020082088
:1039E0000430FC1FFC1F000000000000000000006D
:1039F000000000000000000000000000E003180EBE
:103A00000C0C0C180C180C180018000C0006C00345
:103A1000000E00180010003000300C300C300C107C
:103A20000C18180CE003000000000000000000006B
:103A3000000000000000000000000000000C000E6C
:103A4000000E000F800E800E400E600E200E100E35
:103A5000100E080E040E040EFE7F000E000E000E67
:103A6000000E000E000EC07F0000000000000000ED
:103A7000000000000000000000000000F03FF03FE8
:103A800010001000100008000800C807280C1818C3
:103A9000081000300030003000300C300C300418BA
:103AA0000418080CF00300000000000000000000F3
:103AB000000000000000000000000000800FC010A7
:103AC000203010301800180008000C008C0F6C1803
:103AD0003C301C600C600C600C600C60186018209E
:103AE00030306018C0070000000000000000000037
:103AF000000000000000000000000000F83FF83F58
:103B00001C100C0804080404000400020002000158
:103B100000010001800080008000C000C000C000E3
:103B2000C000C000C0000000000000000000000055
:103B3000000000000000000000000000E007300C62
:103B400018180C300C300C301C3038187008E00796
:103B5000B007180E0C1C063806300630063006304A
:103B60000C18180CE003000000000000000000002A
:103B7000000000000000000000000000E003180446
:103B80000C080C18061006300630063006300638D1
:103B90000C3C1836F03100300018001800180C0CDE
:103BA0000C060C03F0010000000000000000000003
:103BB0000000000000000000000000000000000005
:103BC000000000000000000000008001C003C003EE
:103BD00080010000000000000000000000008001E3
:103BE000C003C003800100000000000000000000CE
:103BF00000000000000000000000000000000000C5
:103C000000000000000000000000C000C000000034
:103C100000000000000000000000000000000000A4
:103C20000000C000C0008000800040004000000094
:103C3000000000000000000000000020001000084C
:103C40000004000600038001C0006000300018007E
:103C50000C00180030006000C00080010003000666
:103C60000004000800100020000000000000000018
:103C70000000000000000000000000000000000044
:103C800000000000000000000000FE7F00000000B7
:103C9000000000000000FE7F0000000000000000A7
:103CA0000000000000000000000000000000000014
:103CB00000000000000000000000040008001000E8
:103CC00020006000C000800100030006000C001806
:103CD00000300018000C000600038001C0006000E6
:103CE0002000100008000400000000000000000098
:103CF00000000000000000000000C007301808307D
:103D000008600C601C601C601C600030001C000619
:103D10000001800080008000800000000000800121
:103D2000C003C0038001000000000000000000008C
:103D3000000000000000000000000000C007601844
:103D4000103018200C2F8C4D864CC64CC64C664C3F
:103D500066446644662666266615CC1C0C40082020
:103D600018303018C00700000000000000000000FC
:103D7000000000000000000000000001C001C001C0
:103D8000C001400160032003200320033006100619
:103D900010061006F80F080C080C080C0C0C041880
:103DA000041806181F7C000000000000000000003E
:103DB000000000000000000000000000FE07181CCA
:103DC000183818301830183018301818180CF80730
:103DD00018181830182018601860186018601860DB
:103DE00018301818FE0F000000000000000000004E
:103DF000000000000000000000000000C027603844
:103E0000103018200C400C4004000600060006008C
:103E1000060006000600060006000C400C400C20C0
:103E200018303018C007000000000000000000003B
:103E3000000000000000000000000000FE03180E5B
:103E4000181818301830183018601860186018608A
:103E50001860186018601860186018301830181052
:103E60001818180EFE0300000000000000000000FB
:103E7000000000000000000000000000FE3F1830BD
:103E8000182018601840180018081808180CF80FA7
:103E9000180C1808180818001800180018401840C6
:103EA00018201830FE3F0000000000000000000055
:103EB000000000000000000000000000FE7F1870FD
:103EC000184018C018801800181018101818F81F7B
:103ED00018181810181018001800180018001800EA
:103EE000180018007E000000000000000000000024
:103EF000000000000000000000000000C013701C63
:103F0000101018100C200C200400060006000600FB
:103F10000600060006FC063006300C300C30183067
:103F200018303008C007000000000000000000004A
:103F30000000000000000000000000003F7E0C18A0
:103F40000C180C180C180C180C180C180C180C1851
:103F5000FC1F0C180C180C180C180C180C180C184A
:103F60000C180C183F7E000000000000000000004C
:103F7000000000000000000000000000F81F8001A9
:103F80008001800180018001800180018001800129
:103F90008001800180018001800180018001800119
:103FA00080018001F81F00000000000000000000F8
:103FB000000000000000000000000000E07F00069C
:103FC00000060006000600060006000600060006C1
:103FD00000060006000600060006000600060006B1
:103FE00000060006000600060E060E038E01FC0009
:103FF0000000000000000000000000007E7C181897
:104000001808180418061802180198019801D80118
:10401000B803380318071806180E180C181C1818BF
:10402000183018307EFC0000000000000000000086
:104030000000000000000000000000007E001800EA
:1040400018001800180018001800180018001800B0
:104050001800180018001800180018001840184020
:1040600018201830FE3F0000000000000000000093
:104070000000000000000000000000001FF81C38D5
:104080001C381C381C3C34343434343434367432E8
:104090006432643264326431C431C431C431C430F6
:1040A000C43084309FFC00000000000000000000CD
:1040B0000000000000000000000000001F7C1C1039
:1040C0003C103410341074106410E410C410C41187
:1040D00084118413041304170416041E041C041C06
:1040E000041C04181F18000000000000000000005D
:1040F000000000000000000000000000C003300CC1
:10410000181808100C300C30066006600660066057
:10411000066006600660066006600C200C30081021
:104120001818300CC0030000000000000000000060
:10413000000000000000000000000000FE0F181842
:104140001830186018601860186018601830181857
:10415000F80F1800180018001800180018001800B0
:10416000180018007E0000000000000000000000A1
:10417000000000000000000000000000C003300C40
:1041800018180C100C300C200660066006600660E3
:1041900006600660066006600660E4612C331C322F
:1041A0001816300EC007004C007C003800000000DC
:1041B000000000000000000000000000FE07181CC6
:1041C000183818301830183018301818180CF8072C
:1041D00098031803180718061806180E180C180C60
:1041E000181C18187E780000000000000000000075
:1041F000000000000000000000000000E027303850
:1042000018300C200C200C000C0018007800E00383
:10421000800F001E003800700060046004600860B9
:1042200018303818C80F000000000000000000001F
:10423000000000000000000000000000FC3F8C2196
:10424000846182418241800180018001800180017E
:104250008001800180018001800180018001800156
:1042600080018001E0070000000000000000000065
:104270000000000000000000000000003F7C0C1067
:104280000C100C100C100C100C100C100C100C104E
:104290000C100C100C100C100C100C100C100C103E
:1042A00008083804E00300000000000000000000DF
:1042B0000000000000000000000000003EF8182090
:1042C00018201820301030103010301060086008AE
:1042D0006008E00CC004C004C004800380038003B5
:1042E0008003000100010000000000000000000049
:1042F000000000000000000000000000DFF3866105
:10430000862186218C210C218C238C138C138C13F9
:104310004C1358125816580E380E380E380E300CF2
:104320001004100410040000000000000000000051
:104330000000000000000000000000007E3E1808A1
:1043400038083004300470026002E001C001C0018E
:10435000800180034003400720062006100C100C4B
:10436000081808183E7C0000000000000000000053
:104370000000000000000000000000007E7C1C1017
:10438000181018083008300C700460046002C00275
:10439000C002C00180018001800180018001800194
:1043A00080018001E0070000000000000000000024
:1043B000000000000000000000000000F83F181896
:1043C0000818040C040E0006000700038003800197
:1043D000C001C000E00060007000300038201820EC
:1043E0001C100C18FE1F0000000000000000000060
:1043F000000000000000C03F4000400040004000BE
:1044000040004000400040004000400040004000AC
:10441000400040004000400040004000400040009C
:1044200040004000400040004000C03F000000004D
:104430000000000000000000000008001800180044
:10444000100030002000600060004000C0008000CC
:104450008001800100010003000200060006000444
:10446000000C0008001800180010003000200000A8
:10447000000000000000FC03000200020002000235
:10448000000200020002000200020002000200021C
:10449000000200020002000200020002000200020C
:1044A00000020002000200020002FC030000000003
:1044B0000000000000008007C00620081010000067
:1044C00000000000000000000000000000000000EC
:1044D00000000000000000000000000000000000DC
:1044E00000000000000000000000000000000000CC
:1044F00000000000000000000000000000000000BC
:1045000000000000000000000000000000000000AB
:10451000000000000000000000000000000000009B
:104520000000000000000000000000000000FFFF8D
:104530000000000000007800C00000010000000042
:10454000000000000000000000000000000000006B
:10455000000000000000000000000000000000005B
:10456000000000000000000000000000000000004B
:10457000000000000000000000000000000000003B
:1045800000000000000000000000F00318060C0C02
:104590000C0C000C800F700C1C0C0C0C060C060C88
:1045A000064C0C4FF838000000000000000000002E
:1045B0000000000000000000000010001E001800B5
:1045C00018001800180018001800180FD8183830F4
:1045D000386018601860186018601860186018203B
:1045E00038307818C8070000000000000000000004
:1045F00000000000000000000000000000000000BB
:1046000000000000000000000000C007700C181837
:1046100018180C180C000C000C000C000C201820B2
:1046200018103008C0070000000000000000000063
:10463000000000000000000000000010001E001834
:1046400000180018001800180018E01B301C18187B
:1046500018180C180C180C180C180C180C18081832
:10466000181C307AE0090000000000000000000083
:10467000000000000000000000000000000000003A
:1046800000000000000000000000C007300C1818F7
:1046900008100C300C30FC3F0C000C000C001820F3
:1046A00018107018C0070000000000000000000093
:1046B000000000000000000000000000003E80C379
:1046C00080C0C0C0C000C000C000FC1FC000C0004F
:1046D000C000C000C000C000C000C000C000C000DA
:1046E000C000C000F80F0000000000000000000043
:1046F00000000000000000000000000000000000BA
:1047000000000000000000000000C077306C1018AE
:104710001818181818181018300CF007180018007E
:10472000F00FF03F08700C600C600C603838E00F40
:104730000000000000000000000010001E00180033
:1047400018001800180018001800980FD8183830F2
:104750001830183018301830183018301830183019
:10476000183018307EFC000000000000000000003F
:104770000000000000000000000000008003800333
:1047800080030000000000000001F80180018001AA
:104790008001800180018001800180018001800111
:1047A00080018001F81F00000000000000000000F0
:1047B0000000000000000000000000000038003889
:1047C00000380000000000000010801F00180018D2
:1047D0000018001800180018001800180018001819
:1047E00000180018001800180018180C1806F0031C
:1047F0000000000000000000000010001E00180073
:1048000018001800180018001800183E180C180698
:10481000180318019801D801380318071806180C56
:10482000181C18187E7C000000000000000000002A
:10483000000000000000000000000001F8018001FD
:104840008001800180018001800180018001800160
:104850008001800180018001800180018001800150
:1048600080018001F81F000000000000000000002F
:104870000000000000000000000000000000000038
:1048800000000000000000000800EE1C9C338C318A
:104890008C318C318C318C318C318C318C318C3130
:1048A0008C318C31DE7B0000000000000000000035
:1048B00000000000000000000000000000000000F8
:1048C000000000000000000010001E0FD818383053
:1048D0001830183018301830183018301830183098
:1048E000183018307EFC00000000000000000000BE
:1048F00000000000000000000000000000000000B8
:1049000000000000000000000000C007701C103014
:1049100018300C600C600C600C600C600C6018307F
:1049200018303018C0070000000000000000000030
:104930000000000000000000000000000000000077
:10494000000000000000000010009E0F58183830D2
:104950001820186018601860186018601860183007
:1049600038307818980718001800180018007E00D2
:104970000000000000000000000000000000000037
:1049800000000000000000000000C023303C183888
:1049900018300C300C300C300C300C300C3008302F
:1049A0001838303CE033003000300030003000FC7C
:1049B00000000000000000000000000000000000F7
:1049C000000000000000000060007E3C6066606146
:1049D000E000E000600060006000600060006000D7
:1049E00060006000FE070000000000000000000002
:1049F00000000000000000000000000000000000B7
:104A000000000000000000000000E02730381830EF
:104A1000182018007000E003800F001C04300430E0
:104A20000C301C18EC0F000000000000000000001B
:104A30000000000000000000000000000000000076
:104A4000800080008000C000E000FC1FC000C000AB
:104A5000C000C000C000C000C000C000C000C02036
:104A6000C0208011000F00000000000000000000C6
:104A70000000000000000000000000000000000036
:104A8000000000000000000010201E3C183018300C
:104A900018301830183018301830183018301830D6
:104AA000183830F4E013000000000000000000009F
:104AB00000000000000000000000000000000000F6
:104AC000000000000000000000007E3C18181808DC
:104AD000380830043004700260026002E001C00156
:104AE000C001C000800000000000000000000000C5
:104AF00000000000000000000000000000000000B6
:104B000000000000000000000000DFF78E630C23AF
:104B10008C238C239813981358165816700E700E09
:104B2000700E2004200400000000000000000000BF
:104B30000000000000000000000000000000000075
:104B400000000000000000000000FC3E700870043F
:104B5000E004C002C0018003800340076006200C0F
:104B6000100C18183E7E000000000000000000003D
:104B70000000000000000000000000000000000035
:104B8000000000000000000000007E7C18181808DB
:104B900030083008300460046004C002C002C00263
:104BA0008001800180018000800080004C003C007A
:104BB00000000000000000000000000000000000F5
:104BC00000000000000000000000FC1F0C0C040EA0
:104BD0000406000380038001C000E0007020302044
:104BE00038301C18FC1F000000000000000000000E
:104BF0000000000000000030000800040004000471
:104C00000004000400040004000400040004000286
:104C100080010002000400040004000400040004F9
:104C20000004000400040004000400080030000038
:104C3000000100010001000100010001000100016C
:104C4000000100010001000100010001000100015C
:104C5000000100010001000100010001000100014C
:104C6000000100010001000100010001000100013C
:104C70000000000000000C001000200020002000B8
:104C80002000200020002000200020002000400004
:104C90008001400020002000200020002000200093
:104CA0002000200020002000200010000C00000048
:104CB00000003800C400864002610022001C000091
:104CC00000000000000000000000000000000000E4
:104CD00000000000000000000000000000000000D4
:104CE00000000000000000000000000000000000C4
:104CF000E4B8AD200020002000FE032202220222A0
:104D000002FE032202200020002000E699AFFC01F1
:104D10000401FC010401FC012000FF070401FC0167
:104D2000200024013202E59BADFE070204FA0402D2
:104D3000040204FE05520452044A0586050204FEDC
:104D400007E794B510001000FF0111011101FF01E8
:104D500011011101FF0111041004E007E5AD9000FD
:104D600000FC018000400020002000FF0720002000
:104D700000200020003800E4B8AD800080008000F2
:104D80008000FC1F84108410841084108410FC1F89
:104D900084108000800080008000E699AFF80F0842
:104DA00008F80F0808F80F8000FF7F0000F80F08D0
:104DB000080808F80F80008410A2204000E59BAD91
:104DC0000000FE3F0220F22702200220FA2F2221BB
:104DD00022212221122912290A2E0220FE3F02201E
:104DE000E794B5800080008000FC1F84108410844C
:104DF00010FC1F841084108410FC1F84508040809D
:104E000040007FE5AD900000FE1F00080004000296
:104E100080018000FF7F8000800080008000800093
:104E20008000A0004000E4B8AD00000000000000D9
:104E30001800000800000800000800080818F8FF23
:104E40001F1808181808181808181808181808182B
:104E5000180818F8FF1F08080800080000080000DC
:104E600008000008000018000018000018000000EA
:104E700000E699AF000000000000400006C0FF07F8
:104E8000400006C0FF07400006C0FF0740080200C0
:104E90003000FEFF3F000000C0FF07C00002C0005E
:104EA00002C00002C0FF0380100080110160100EDC
:104EB0003010180C1E30001C00000000E59BAD00F7
:104EC0000000000000080030F8FF1F08001008C0B4
:104ED00010083F10080010080010080013C8FF1049
:104EE0000822100822100822100822100821120897
:104EF000211488601648C013280010080010F8FF1D
:104F00001F080010000000E794B50000000000003A
:104F1000001800000800000800000800F0FF0F1053
:104F20000804100804100804100804F0FF07100813
:104F300004100804100804100804F0FF071008000B
:104F400000081000081000082000183000F01F00B2
:104F50000000E5AD90000000000000000004F0FF3C
:104F60000F00000600000100C0000028000018002B
:104F7000001800001830FEFF7F0018000018000025
:104F80001800001800001800001800001800001891
:104F900000001800001F00000C00000000E4B8AD85
:104FA0000000000000000000008000000080010000
:104FB00000800100008001000080010000800100ED
:104FC0001080010CF0FFFF0F3080010430800104DD
:104FD00030800104308001043080010430800104FD
:104FE0003080010430800104F0FFFF0730800104AD
:104FF0003080010400800100008001000080010079
:10500000008001000080010000800100008001009C
:10501000008001000080010000800000000000000E
:10502000E699AF0000000000000000000000000052
:1050300001800100FFFF01000380010003800100E7
:10504000FFFF01000380010003800100FFFF01005A
:10505000818100000003000000031CFCFFFF3F00F3
:105060000040000003C00100FFFF010003C000007A
:1050700003C0000003C00000FFFF0000014100006A
:10508000040100000E71000007810180010107602A
:1050900000010E1898011C04E0011800C000000077
:1050A000000000E59BAD00000000000000000000D3
:1050B0000008F0FFFF1F3000000C3000000C300033
:1050C000100C30FE3F0C3004000C3000000C30009F
:1050D000000C3000000C3000C00CF0FFFF0D303031
:1050E000060E3030060C3010060C3010060C301056
:1050F000060C3018860C3018860C3008060D300C63
:10510000860D3006EE0F3002FC0D3001000CF00071
:10511000000C3000000CF0FFFF0F3000000C1000FE
:10512000000400000000E794B5000000000000004B
:105130000000C0000000C0010000C0000000C0006E
:105140000000C0000000C00000E0FFFF0360C000DE
:105150000360C0000360C0000360C0000360C000C3
:105160000360C00003E0FFFF0360C0000360C000F5
:105170000360C0000360C0000360C00003E0FFFFE5
:105180000360C0000160C0000000C0000800C00053
:105190001000C0001000C0001800C001380080FFDF
:1051A0001F0000000000000000E5AD9000000000BE
:1051B000000000000000000000000003C0FFFF0727
:1051C000000080070000C000000060000000180020
:1051D00000000C000080030000800300008001003C
:1051E000008001080080011CFCFFFF3F00800100DF
:1051F00000800100008001000080010000800100AB
:10520000008001000080010000800100008001009A
:1052100000800100008001000080010000FC01000E
:1052200000E000000040000000000000FFFFFFFF62
:10523000FFFFFFFFFFFFFFFFFFFFFFFFFFFFFFFF7E
:10524000FFFEFFFEFFDEFFDFFFDFFFDFFFDFFFDE32
:10525000FFDFFFDEFFDEFFFEFFFFFFDFFFFEFFFFE2
:10526000FFFFFFFEFFFFFFFFFFFFFFFFFFFEFFFF50
:10527000FFFFFFFFFFFFFFFFFFFFFFFFFFFFFFFF3E
:10528000FFFFFFDEFFDEFFDEFFDEFFDEFFDEFFDE15
:10529000FFFEFFFEFFFEFFDEFFFEFFFFFFFFFFFF43
:1052A000FFFFFFFFFFFFFFFFFFFFFFFFFFFFFFDF2E
:1052B000FFFFFFFFFFFFFFFFFFFFFFFFFFDFFFDF3E
:1052C000FFFFFFFFFFFFFFFFFFFFFFFFFFFFFFFFEE
:1052D000FFFFFFFFFFFFFFDFFFDFFFFFFFFFFFFF1E
:1052E000FFFFFFFFFFFFFFDFFFFFFFDFFFDFFFDF4E
:1052F000FFDFFFDFFFDEFFDEFFDEFFDEFFDEFFFEA4
:10530000FFFEFFDEFFDEFFDEF7DEFFDEFFDEFFDE9D
:10531000FFDEFFDEFFDFFFDEFFDEFFDEFFDEFFDEA4
:10532000FFDEFFDEFFDEFFDEFFDEFFDEFFDEFFDF94
:10533000FFDFFFFFFFFFFFDEFFFEFFDEFFDEFFDE22
:10534000FFDEFFDEFFDEFFDEFFDEFFDEFFDEFFDE75
:10535000FFBFFFDEFFDEFFDEFFDEFFDEFFDEFFDE84
:10536000FFDEFFDEFFDEFFDEFFDEFFDEFFBEFFDE75
:10537000FFDEFFDEFFDEFFDEFFDEFFDEFFDEFFDE45
:10538000FFDFFFDFFFDFFFDFFFDFFFDFFFFFFFDF0D
:10539000FFFFFFFFFFFFFFFFFFFFFFFFFFFFFFFF1D
:1053A000FFFFFFFFFFFFFFFFFFFFC6187C1094D435
:1053B000A5359CF494F494B1B594EF7DFFFFFFFF05
:1053C000FFFFFFFFFFFFFFFFFFFFFFFFFFDEFFFF0E
:1053D000FFDFFFFFFFFFFFFFFFFFFFFFFFDFFFDF3D
:1053E000FFFFFFDFFFFFFFFFFFDFFFFFFFFFFFFF0D
:1053F000FFFFFFFFFFFFFFFFFFFFFFFFFFDFFFFFDD
:10540000FFFFFFFFFFFFFFFFFFFFFFFFFFFFFFFFAC
:10541000FFFFFFFFFFFFFFFFFFFFFFFFFFFFFFFF9C
:10542000FFFEFFFEFFDFFFDFFFDFFFDEFFDFFFDF4F
:10543000FFDFFFDFFFDFFFFFFFDFFFDFFFFFFFDF3C
:10544000FFDFFFFEFFFFFFDEFFFFFFFFFFFFFFFFAE
:10545000FFFFFFFFFFFFFFFFFFFFFFFFFFDFFFFF7C
:10546000FFFEFFFEFFDEFFDEFFDEFFDEFFDEFFDE14
:10547000FFFEFFFEFFFEFFFEFFFFFFFEFFFFFFFF41
:10548000FFFFFFFFFFFFFFFFFFFFFFFFFFDFFFDF6C
:10549000FFFFFFFFFFFFFFDFFFDFFFFFFFFFFFDF7C
:1054A000FFDFFFFFFFFFFFFFFFFFFFFFFFFFFFDF4C
:1054B000FFFFFFFFFFFFFFFFFFFFFFFFFFFFFFFFFC
:1054C000FFDFFFFFFFFFFFFFFFFFFFDFFFDFFFDF6C
:1054D000FFDFFFDEFFDEFFDEFFFEFFFEFFFEFFDE83
:1054E000FFDEFFDEFFDEFFDEF7DEFFDEFFDEFFDEDC
:1054F000FFDEFFDEFFDEFFDEFFFEFFFEFFDEFFDE84
:10550000FFDEFFDEFFDEFFDEFFDEF7DEFFDFFFDFB9
:10551000FFDFFFDFFFDFFFDEFFFEFFDEFFDEFFDE80
:10552000FFDEFFDEFFDEFFDEFFDEFFDEFFDEFFDE93
:10553000FFDEFFDEFFDEFFDEFFDEFFDEFFDEFFDE83
:10554000FFDEFFDEFFDEFFDEFFDEFFDEFFDEFFDE73
:10555000FFDEFFDEFFDEFFDEFFDEFFDEFFDEFFDF62
:10556000FFDFFFDFFFDFFFDFFFFFFFFFFFDFFFFFEB
:10557000FFFFFFFFFFFFFFFFFFDFFFFFFFFFFFFF5B
:10558000FFFFFFFFFFFFFFFFDEFBA5347BCF738E26
:105590006B4D6B6E5AEC632CAD54F79DFFFFFFFF14
:1055A000FFFFFFFFFFFFFFFFFFFFFFFFFFFFFFDF2B
:1055B000FFFFFFFFFFDFFFFFFFFFFFFFFFDFFFFF3B
:1055C000FFFFFFFFFFFFFFFFFFFFFFFFFFFFFFFFEB
:1055D000FFFFFFFFFFFFFFFFFFFFFFDFFFFFFFFFFB
:1055E000FFFFFFFFFFFFFFFFFFFFFFFFFFFFFFFFCB
:1055F000FFFFFFFFFFFFFFFFFFFFFFFFFFFFFFFFBB
:10560000FFDEFFDFFFDFFFDFFFDFFFDEFFDEFFDFAD
:10561000FFDEFFDEFFDFFFDFFFDFFFDFFFDFFFDF9C
:10562000FFFFFFFFFFFFFFFFFFFFFFFFFFFFFFFF8A
:10563000FFFFFFFFFFFFFFFFFFFFFFFFFFFFFFFF7A
:10564000FFFEFFFEFFDEFFDEFFDEFFDEFFDEFFDE32
:10565000FFDEFFFEFFFFFFFFFFFFFFFFFFFFFFFF7C
:10566000FFFFFFFFFFFFFFFFFFFFFFFFFFFFFFFF4A
:10567000FFFFFFFFFFFFFFFFFFFFFFFFFFFFFFDF5A
:10568000FFDFFFFFFFFFFFFFFFFFFFFFFFFFFFDF6A
:10569000FFDFFFFFFFFFFFFFFFFFFFFFFFFFFFFF3A
:1056A000FFFFFFFFFFFFFFFFFFFFFFDFFFDFFFDF6A
:1056B000FFDFFFDFFFFEFFFFFFFEFFFFFFFEFFFE3E
:1056C000FFDEFFDEFFDEFFDEFFDEFFDEFFDEFFDEF2
:1056D000F7DEFFDEFFDEFFDEFFDEFFDEFFDEFFDEEA
:1056E000FFDEFFDEFFDEFFDEFFDEFFDEFFDFFFDFD0
:1056F000FFDEFFDEFFDEFFDEFFDEFFDEFFDEFFDEC2
:10570000F7DEF7DEFFDEFFDEFFDEFFDEFFDEFFDEC1
:10571000FFDEFFDEFFDEFFDEFFDEFFDEFFFEFFDE81
:10572000FFDEFFDEFFDEFFDEFFDEFFDEFFDFFFDF8F
:10573000FFDEFFFEFFDEFFDEFFDEFFDEFFDFFFDF5F
:10574000FFDFFFDFFFFFFFFFFFFFFFFFFFFFFFFFA9
:10575000FFFFFFFFFFDFFFFFFFFFFFFFFFFFFFFF79
:10576000FFFFFFFFFFFFFFFFCE597C0F5AAB632DFA
:105770006B6E5B0D5AED7BF0FFFFFFFFFFFFFFFF3E
:10578000FFFFFFFFFFFFFFFFFFFFFFFFFFFFFFFF29
:10579000FFFFFFFFFFFFFFFFFFFFFFFFFFFFFFFF19
:1057A000FFFFFFFFFFFFFFFFFFFFFFFFFFFFFFFF09
:1057B000FFFFFFFFFFFFFFFFFFFFFFFFFFFFFFFFF9
:1057C000FFFFFFFFFFFFFFFFFFFFFFFFFFFFFFFFE9
:1057D000FFFFFFFFFFFFFFFFFFFFFFFFFFFFFFFFD9
:1057E000FFDFFFDFFFDEFFFEFFDEFFDEFFDEFFDEAF
:1057F000FFDEFFDEFFDEFFDEFFDEFFDEFFDFFFDEC0
:10580000FFFFFFFFFFFFFFFEFFFEFFFFFFFFFFFFAA
:10581000FFFFFFFFFFFFFFFFFFFFFFFFFFFFFFFF98
:10582000FFFEFFFEFFDEFFDEFFDEFFDEFFDEFFDE50
:10583000FFDFFFDFFFFFFFFFFFFFFFFFFFFFFFFFB8
:10584000FFFFFFFFFFFFFFFFFFFFFFFFFFDFFFFF88
:10585000FFFFFFFFFFFFFFFFFFFFFFFFFFFFFFFF58
:10586000FFFFFFFFFFFFFFDFFFFFFFFFFFFFFFFF68
:10587000FFFFFFFFFFFFFFFFFFFFFFFFFFFFFFFF38
:10588000FFFFFFFFFFFFFFDFFFDFFFFFFFFFFFFF68
:10589000FFFFFFFFFFFFFFFFFFFEFFFEFFDFFFFF3A
:1058A000FFDEFFDEFFDEFFDEFFDEFFDEFFDEFFDE10
:1058B000FFDEF7DEFFDEFFDEFFDEFFDEFFDEFFDE08
:1058C000FFDEFFDEFFDEFFDEFFDEFFDEFFDFFFDEEF
:1058D000FFDEFFDEFFDEFFDFFFDFFFDEFFDEF7DEE6
:1058E000F7DEFFDEFFDEF7DEFFBEFFBEF7DEFFDE28
:1058F000FFDEFFDEFFDEFFDFFFDFFFDEFFDEFFDEBE
:10590000FFDEFFDEFFDEFFDEFFDEFFDFFFDFFFDFAC
:10591000FFDFFFDFFFFEFFFEFFFEFFDEFFDEFFDF3C
:10592000FFFFFFFFFFFFFFFFFFFFFFFFFFDFFFFFA7
:10593000FFFFFFFFFFFFFFFFFFFFFFFFFFFFFFFF77
:10594000FFFFFFFFFFFFFFFFFFFFB5D65AEC8C9272
:10595000BE59B5F8A596B5D6FFFFFFFFFFFFFFFFC5
:10596000FFFFFFFFFFFFFFFFFFFFFFFFFFFFFFFF47
:10597000FFFFFFFFFFFFFFFFFFFFFFDFFFDFFFFF77
:10598000FFFFFFFFFFFFFFFFFFFFFFFFF7BEEF7C03
:10599000EF7CFFFFFFFFFFFFFFFFFFFFFFFFFFFFAA
:1059A000FFFFFFFFFFFFFFFFFFFFFFFFFFFFFFFF07
:1059B000FFFFFFFFFFFFFFFFFFFFFFFFFFFFFFFFF7
:1059C000FFDFFFDFFFDEFFDEFFDEFFDEFFDEFFDEED
:1059D000FFDEFFDEFFDEFFDEFFFEFFDEFFDFFFDFBD
:1059E000FFDFFFDFFFDFFFFFFFFFFFFFFFFFFFFF27
:1059F000FFFFFFFFFFFFFFFFFFFFFFFFFFDFFFFFD7
:105A0000FFFFFFFEFFFEFFDEFFDEFFDEFFFEFFDE2D
:105A1000FFDFFFDFFFFFFFFFFFFFFFFFFFFFFFFFD6
:105A2000FFFFFFFFFFFFFFFFFFFFFFFFFFDFFFDFC6
:105A3000FFFFFFFFFFDFFFFFFFFFFFFFFFFFFFFF96
:105A4000FFFFFFFFFFFFFFDFFFFFFFFFFFFFFFFF86
:105A5000FFDFFFFFFFFFFFFFFFFFFFFFFFFFFFFF76
:105A6000FFFFFFFFFFFFFFFFFFDFFFFFFFFFFFFF66
:105A7000FFFFFFFFFFFFFFFFFFFEFFFEFFFFFFFE39
:105A8000FFFEFFDEFFDEFFDEFFDEFFDEFFDEFFDE0E
:105A9000F7DEF7DEFFDEFFDEFFDEFFDEFFDEFFDE2E
:105AA000FFDEFFDEFFDEFFDEFFDEFFDEF7DEFFDE16
:105AB000FFDEFFDEFFDEFFDFFFDFFFDEFFDEFFDEFC
:105AC000F7DEF7DEF7DEF7BEFFBEFFBEFFDEFFDE6E
:105AD000FFDEFFDEFFDFFFDFFFDFFFDEFFDEFFDEDB
