:020000040800F2
:1000000008040020A1010008E90300080903000812
:10001000E5030008E9010008910500080000000060
:100020000000000000000000000000000D040008B7
:10003000ED01000800000000EB03000825050008A2
:10004000BB010008BB010008BB010008BB010008A0
:10005000BB010008BB010008BB010008BB01000890
:10006000BB010008BB010008BB010008BB01000880
:10007000BB010008BB010008BB010008BB01000870
:10008000BB010008BB010008BB010008BB01000860
:10009000BB010008BB010008BB010008BB01000850
:1000A000BB010008BB010008BB010008BB01000840
:1000B000BB010008BB010008BB010008BB01000830
:1000C000BB010008BB010008BB010008BB01000820
:1000D000BB010008BB010008BB010008BB01000810
:1000E000BB010008BB010008BB010008BB01000800
:1000F000BB010008BB010008BB010008BB010008F0
:10010000BB010008BB010008BB010008BB010008DF
:10011000BB010008BB010008BB010008BB010008CF
:10012000BB010008BB010008BB010008BB010008BF
:10013000BB010008BB010008BB010008BB010008AF
:10014000BB010008BB010008BB010008BB0100089F
:10015000BB010008BB010008BB010008BB0100088F
:10016000BB010008BB010008BB010008BB0100087F
:10017000BB010008BB010008BB010008BB0100086F
:10018000BB010008BB010008DFF810D000F01AF82E
:1001900000480047B3050008AFF3008008040020C2
:1001A0000648804706480047FEE7FEE7FEE7FEE711
:1001B000FEE7FEE7FEE7FEE7FEE7FEE729050008AB
:1001C00089010008064C074D06E0E06840F0010395
:1001D00094E8070098471034AC42F6D3FFF7D8FFF5
:1001E000DC050008FC05000800BFFEE770470000C2
:1001F00010B56FF0040000F081F915200149087076
:1002000010BD00000000002030B50446002505E0C8
:100210004FF47A7000F006F8681C85B2A542F7DB4F
:1002200030BD00000146114A12784A434FF0E023E6
:100230005A6100229A611A46126942F001021A615B
:1002400000BF4FF0E022106900F001021AB100F483
:100250008032002AF5D04FF0E022126922F001022C
:100260004FF0E0231A6100229A61704700000020DD
:10027000F0B50A4600210023002400BF3DE001251F
:1002800005FA01F3156805EA03049C4234D10568B8
:100290004F000326BE40B543056015794E00B540BA
:1002A0000668354305601579012D02D01579022DB8
:1002B00016D185684F000326BE40B5438560557949
:1002C0004E00B540866835438560456801268E40FE
:1002D000B5434560456896798E40B6B23543456072
:1002E000C5684F000326BE40B543C560D5794E00B2
:1002F000B540C6683543C560491C1029BFD3F0BD61
:10030000418370470183704700BFFEE71CB50121A0
:10031000102000F06BF81C20009000208DF80400E5
:1003200001208DF8070069460948FFF7A1FF012168
:10033000084600F05BF80120009000208DF80400D2
:1003400002208DF8070069460248FFF791FF1CBDA7
:1003500000100240000002401CB50121202000F0E6
:1003600045F84FF46060009001208DF804000020F3
:100370008DF806008DF8050069460348FFF778FF01
:1003800000F01CF81CBD00000014024010B500F085
:1003900015F84FF480610248FFF7B2FF10BD00006E
:1003A0000014024010B500F009F84FF40071024843
:1003B000FFF7A6FF10BD00000014024010B54FF477
:1003C00000710748FFF79EFF4FF480610448FFF774
:1003D00099FF4FF400610248FFF794FF10BD000041
:1003E0000014024000BFFEE77047704729B1064A7B
:1003F00012680243044B1A6004E0034A1268824305
:10040000014B1A607047000030380240704700000E
:100410000CB50020019000903448006840F4803012
:100420003249086000BF3148006800F40030009095
:100430000198401C0190009818B90198B0F5A04FA0
:10044000F1D12A48006800F4003010B1012000907A
:1004500001E0002000900098012846D12348403058
:10046000006840F080502149403108602048006811
:1004700040F440401E4908601C48083000681B4991
:10048000083108600846006840F4004008600846EB
:10049000006840F4A05008601648091F0860081F53
:1004A000006840F08070091F086000BF0F480068B6
:1004B00000F000700028F9D040F205700E49086085
:1004C0000A480830006820F0030008490831086035
:1004D0000846006840F00200086000BF034808308A
:1004E000006800F00C000828F8D10CBD003802406C
:1004F0000070004008544007003C0240042808D126
:100500004FF0E021096941F004014FF0E022116150
:1005100007E04FF0E021096921F004014FF0E022EB
:10052000116170477047000010B51548006840F42D
:100530007000134908601348006840F00100114939
:10054000086000200F49083108600E4800680E4915
:1005500008400C4908600D48091D0860081F006824
:1005600020F48020091F0860002006490C31086033
:10057000FFF74EFF4FF0006001498039086010BD61
:1005800088ED00E000380240FFFFF6FE1030002446
:1005900000BFFEE702E008C8121F08C1002AFAD116
:1005A00070477047002001E001C1121F002AFBD1F3
:1005B0007047FFF71DFEFFF7CFFEFFF7A7FE0BE02A
:1005C000FFF7F0FE41F28830FFF71EFEFFF7DEFE78
:1005D00041F28830FFF718FEF2E70000FC05000842
:1005E0000000002004000000940500080006000838
:1005F0000400002004040000A4050008000000001E
:040000050800018965
:00000001FF
