:020000040800F2
:1000000000040020A1010008010300089D0200086F
:10001000FD020008E901000881040008000000005A
:1000200000000000000000000000000025030008A0
:10003000ED0100080000000003030008150400089B
:10004000BB010008BB010008BB010008BB010008A0
:10005000BB010008BB010008BB010008BB01000890
:10006000BB010008BB010008BB010008BB01000880
:10007000BB010008BB010008BB010008BB01000870
:10008000BB010008BB010008BB010008BB01000860
:10009000BB010008BB010008BB010008BB01000850
:1000A000BB010008BB010008BB010008BB01000840
:1000B000BB010008BB010008BB010008BB01000830
:1000C000BB010008BB010008BB010008BB01000820
:1000D000BB010008BB010008BB010008BB01000810
:1000E000BB010008BB010008BB010008BB01000800
:1000F000BB010008BB010008BB010008BB010008F0
:10010000BB010008BB010008BB010008BB010008DF
:10011000BB010008BB010008BB010008BB010008CF
:10012000BB010008BB010008BB010008BB010008BF
:10013000BB010008BB010008BB010008BB010008AF
:10014000BB010008BB010008BB010008BB0100089F
:10015000BB010008BB010008BB010008BB0100088F
:10016000BB010008BB010008BB010008BB0100087F
:10017000BB010008BB010008BB010008BB0100086F
:10018000BB010008BB010008DFF810D000F01AF82E
:1001900000480047A5040008AFF3008000040020D9
:1001A0000648804706480047FEE7FEE7FEE7FEE711
:1001B000FEE7FEE7FEE7FEE7FEE7FEE719040008BC
:1001C00089010008064C074D06E0E06840F0010395
:1001D00094E8070098471034AC42F6D3FFF7D8FFF5
:1001E000D4040008E404000800BFFEE770470021C3
:1001F00007E0002200E0521C40F6B8339A42FAD3DE
:10020000491C8142F5D37047F0B50A46002100230E
:10021000002400BF3DE0012505FA01F3156805EA59
:1002200003049C4234D105684F000326BE40B54309
:10023000056015794E00B5400668354305601579AF
:10024000012D02D01579022D16D185684F000326A5
:10025000BE40B543856055794E00B540866835434C
:100260008560456801268E40B543456045689679AE
:100270008E40B6B235434560C5684F000326BE4088
:10028000B543C560D5794E00B540C6683543C560F5
:10029000491C1029BFD3F0BD0183704700BFFEE7A2
:1002A0001CB50121202000F02DF84FF46060009073
:1002B00001208DF8040000208DF806008DF805005F
:1002C00069460348FFF7A0FF00F004F81CBD0000DA
:1002D0000014024010B54FF400710748FFF7DCFF2F
:1002E0004FF480610448FFF7D7FF4FF400610248E4
:1002F000FFF7D2FF10BD00000014024000BFFEE770
:100300007047704729B1064A12680243044B1A60CD
:1003100004E0034A12688243014B1A6070470000F0
:1003200030380240704700000CB50020019000906A
:100330003448006840F480303249086000BF3148DA
:10034000006800F4003000900198401C0190009873
:1003500018B90198B0F5A04FF1D12A48006800F40F
:10036000003010B10120009001E0002000900098C2
:10037000012846D123484030006840F08050214990
:10038000403108602048006840F440401E49086041
:100390001C48083000681B4908310860084600689E
:1003A00040F4004008600846006840F4A05008602F
:1003B0001648091F0860081F006840F08070091F78
:1003C000086000BF0F48006800F000700028F9D0F6
:1003D00040F205700E4908600A480830006820F0B5
:1003E00003000849083108600846006840F0020030
:1003F000086000BF03480830006800F00C000828BF
:10040000F8D10CBD0038024000700040085440078D
:10041000003C02407047000010B51548006840F4E9
:100420007000134908601348006840F0010011494A
:10043000086000200F49083108600E4800680E4926
:1004400008400C4908600D48091D0860081F006835
:1004500020F48020091F0860002006490C31086044
:10046000FFF762FF4FF0006001498039086010BD5E
:1004700088ED00E000380240FFFFF6FE1030002457
:1004800000BFFEE702E008C8121F08C1002AFAD127
:1004900070477047002001E001C1121F002AFBD104
:1004A00070470000FFF7FCFE0EE0012007490860DE
:1004B00041F28830FFF79BFE00200549C1F8A402F5
:1004C00041F28830FFF793FEEFE70000A48242423A
:1004D00000804242E4040008000000200004000004
:0404E0009404000878
:040000050800018965
:00000001FF
