:020000040800F2
:1000000008040020A10100085D030008AF020008F9
:1000100059030008E9010008DD04000800000000A1
:100020000000000000000000000000008103000844
:10003000ED010008000000005F03000871040008E3
:10004000BB010008BB010008BB010008BB010008A0
:10005000BB010008BB010008BB010008BB01000890
:10006000BB010008BB010008BB010008BB01000880
:10007000BB010008BB010008BB010008BB01000870
:10008000BB010008BB010008BB010008BB01000860
:10009000BB010008BB010008BB010008BB01000850
:1000A000BB010008BB010008BB010008BB01000840
:1000B000BB010008BB010008BB010008BB01000830
:1000C000BB010008BB010008BB010008BB01000820
:1000D000BB010008BB010008BB010008BB01000810
:1000E000BB010008BB010008BB010008BB01000800
:1000F000BB010008BB010008BB010008BB010008F0
:10010000BB010008BB010008BB010008BB010008DF
:10011000BB010008BB010008BB010008BB010008CF
:10012000BB010008BB010008BB010008BB010008BF
:10013000BB010008BB010008BB010008BB010008AF
:10014000BB010008BB010008BB010008BB0100089F
:10015000BB010008BB010008BB010008BB0100088F
:10016000BB010008BB010008BB010008BB0100087F
:10017000BB010008BB010008BB010008BB0100086F
:10018000BB010008BB010008DFF810D000F01AF82E
:100190000048004701050008AFF300800804002074
:1001A0000648804706480047FEE7FEE7FEE7FEE711
:1001B000FEE7FEE7FEE7FEE7FEE7FEE77504000860
:1001C00089010008064C074D06E0E06840F0010395
:1001D00094E8070098471034AC42F6D3FFF7D8FFF5
:1001E0002C0500084C05000800BFFEE77047002101
:1001F00007E0002200E0521C40F6B8339A42FAD3DE
:10020000491C8142F5D37047F0B50A46002100230E
:10021000002400BF3DE0012505FA01F3156805EA59
:1002200003049C4234D105684F000326BE40B54309
:10023000056015794E00B5400668354305601579AF
:10024000012D02D01579022D16D185684F000326A5
:10025000BE40B543856055794E00B540866835434C
:100260008560456801268E40B543456045689679AE
:100270008E40B6B235434560C5684F000326BE4088
:10028000B543C560D5794E00B540C6683543C560F5
:10029000491C1029BFD3F0BD0246002013690B4052
:1002A0000BB1012000E0002070470183704700BFC0
:1002B000FEE7000010B510210D48FFF7EDFF08B173
:1002C000012000E000200B49087008460078012852
:1002D00008D10948007828B908460078064908700E
:1002E000012010BD03480078034908700020F8E79A
:1002F0000010024000000020040000201CB5012175
:10030000202000F02DF84FF46060009001208DF85F
:10031000040000208DF806008DF8050069460348AA
:10032000FFF772FF00F004F81CBD0000001402404B
:1003300010B54FF400710748FFF7B7FF4FF4806125
:100340000448FFF7B2FF4FF400610248FFF7ADFF2A
:1003500010BD00000014024000BFFEE77047704768
:1003600029B1064A12680243044B1A6004E0034AAA
:1003700012688243014B1A60704700003038024017
:10038000704700000CB500200190009034480068D0
:1003900040F480303249086000BF3148006800F402
:1003A000003000900198401C0190009818B9019805
:1003B000B0F5A04FF1D12A48006800F4003010B128
:1003C0000120009001E0002000900098012846D113
:1003D00023484030006840F0805021494031086097
:1003E0002048006840F440401E4908601C4808301E
:1003F00000681B49083108600846006840F4004066
:1004000008600846006840F4A05008601648091FBC
:100410000860081F006840F08070091F086000BF76
:100420000F48006800F000700028F9D040F2057015
:100430000E4908600A480830006820F003000849A7
:10044000083108600846006840F00200086000BFFC
:1004500003480830006800F00C000828F8D10CBDF3
:10046000003802400070004008544007003C024041
:100470007047000010B51548006840F4700013493B
:1004800008601348006840F001001149086000202E
:100490000F49083108600E4800680E4908400C49B1
:1004A00008600D48091D0860081F006820F48020BE
:1004B000091F0860002006490C310860FFF762FF41
:1004C0004FF0006001498039086010BD88ED00E000
:1004D00000380240FFFFF6FE1030002400BFFEE7A8
:1004E00002E008C8121F08C1002AFAD170477047FD
:1004F000002001E001C1121F002AFBD1704700005B
:10050000FFF7FCFE0EE0FFF7D5FE58B10648006885
:1005100008B9012000E00020034908604FF4FA60A8
:10052000FFF765FEEFE70000A48242424C05000899
:100530000000002008000000E00400085405000846
:100540000800002000040000F00400080000000083
:0405500001010100A4
:040000050800018965
:00000001FF
