:020000040800F2
:10000000200B0020A101000821140008471300085C
:100010001D14000813030008BD1C000800000000A8
:1000200000000000000000000000000007170008AA
:1000300017030008000000000517000895180008C5
:10004000C5010008C5010008C5010008C501000878
:10005000C5010008C5010008C5010008C501000868
:10006000C5010008C5010008C5010008C501000858
:10007000C5010008C5010008C5010008C501000848
:10008000C5010008C5010008C5010008C501000838
:10009000C5010008C5010008C5010008C501000828
:1000A000C5010008C5010008C5010008C501000818
:1000B000C5010008C5010008C5010008C501000808
:1000C000C5010008C5010008C5010008C5010008F8
:1000D000C5010008AD1C0008C5010008C5010008E5
:1000E000C5010008C5010008C5010008C5010008D8
:1000F000C5010008C5010008C5010008C5010008C8
:10010000C5010008C5010008C5010008C5010008B7
:10011000C5010008C5010008C5010008C5010008A7
:10012000C5010008C5010008C5010008C501000897
:10013000C5010008C5010008C5010008C501000887
:10014000C5010008C5010008C5010008C501000877
:10015000C5010008C5010008C5010008C501000867
:10016000C5010008C5010008C5010008C501000857
:10017000C5010008C5010008C50100080000000015
:10018000C5010008C5010008DFF810D000F084F8B0
:10019000004800476D1D0008AFF30080200B0020D1
:1001A0000948016841F47001016008488047084827
:1001B0000047FEE7FEE7FEE7FEE7FEE7FEE7FEE7B5
:1001C000FEE7FEE7FEE7000088ED00E09D1800086E
:1001D000890100082DE9F05F0546002092469B4604
:1001E00088460646814640241BE02846414647464D
:1001F000224600F041F853465A46C01A914110D3A6
:1002000011461846224600F028F82D1A67EB01081F
:100210004F4622460120002100F01FF817EB00098D
:100220004E41201EA4F10104DFDC484631462A4637
:100230004346BDE8F09FD2B201E000F8012B491E11
:10024000FBD270470022F6E710B513460A46044673
:100250001946FFF7F0FF204610BD202A04DB203AA4
:1002600000FA02F1002070479140C2F1200320FA09
:1002700003F3194390407047202A04DB203A21FA07
:1002800002F00021704721FA02F3D040C2F12002AF
:100290009140084319467047064C074D06E0E06858
:1002A00040F0010394E8070098471034AC42F6D3BD
:1002B000FFF76EFF941F0008B41F000870B58C187C
:1002C00010F8015B15F0070301D110F8013B2A116A
:1002D00006D110F8012B03E010F8016B01F8016B57
:1002E0005B1EF9D12B0705D40023521E0DD401F853
:1002F000013BFAE710F8013BCB1A921C03E013F81C
:10030000015B01F8015B521EF9D5A142D8D3002050
:1003100070BD00BFFEE7704770B50446A56D00F0E4
:100320007BF9064694F83500022808D080206065E5
:1003300000BF002084F8340000BF012070BD206899
:10034000006820F01600216808602068406920F0ED
:10035000800021684861206C08B9A06C28B1206831
:10036000006820F00800216808602068006820F01C
:100370000100216808600FE000F04EF9801B05289D
:100380000AD92020606500BF002084F8340000BF37
:10039000032084F83500D1E72068006800F00100F0
:1003A0000028E9D194F85C103F208840A86000BF85
:1003B000002084F8340000BF012084F835000020BC
:1003C000BCE7014691F83500022803D0802048653B
:1003D00001207047052081F835000868006820F08A
:1003E00001000A6810600020F3E70000F8B502463B
:1003F0000B460025002400200021DEE0012606FA3D
:1004000001F51E6806EA0504AC4275D11E7906F0B6
:100410000306012E04D01E7906F00306022E13D126
:1004200090684F000326BE40B0434F00DE68BE40D8
:1004300030439060506801268E40B0431E79C6F369
:1004400000168E40304350601E7906F00306032EDE
:1004500009D0D0684F000326BE40B0434F009E68CD
:10046000BE403043D0601E7906F00306022E13D141
:10047000CF0802F1200656F827004E07F70E0F2688
:10048000BE40B0434F07FF0E1E69BE403043CF0849
:1004900002F1200646F8270010684F000326BE40F0
:1004A000B0431E7906F003064F00BE403043106093
:1004B0005E6806F08056B6F1805F7DD100BF0026F1
:1004C0000096404E366846F480463E4F3E603E46BB
:1004D000366806F48046009600BF00BF3A4E8F088B
:1004E00056F827008E07370F0F26BE40B043374E11
:1004F000B24202D1002624E05EE0354EB24201D184
:1005000001261EE0334EB24201D1022619E0324EDE
:10051000B24201D1032614E0304EB24201D104268A
:100520000FE02F4EB24201D105260AE02D4EB24215
:1005300001D1062605E02C4EB24201D1072600E08B
:1005400008268F073F0FBE4030431F4E8F0846F8E6
:100550002700264E3068A0435E6806F48036B6F564
:10056000803F00D12043214E3060361D3068A043CB
:100570005E6806F40036B6F5003F00D120431B4EFE
:10058000361D3060361D3068A0435E6806F4801664
:10059000B6F5801F00D12043144E08363060361D5A
:1005A0003068A0435E6806F40016B6F5001F00D15F
:1005B00020430E4E0C363060491C1029FFF41EAF4C
:1005C000F8BD0000443802400838014000000240F5
:1005D0000004024000080240000C024000100240EB
:1005E0000014024000180240001C0240003C014080
:1005F000024613690B400BB1012000E00020704758
:100600000AB1816101E00B04836170470148006811
:10061000000C7047002004E00148006870470000AB
:100620001400002003480068034909780844014980
:1006300008607047140000201C00002010B50A4814
:10064000006840F40070084908600846006840F4FB
:1006500080600860052000F07FF80F2000F006F8A9
:1006600000F02AF8002010BD003C024070B504469E
:100670000E4800784FF47A71B1FBF0F00C4909682C
:10068000B1FBF0F5284600F009FC08B1012070BD6F
:10069000102C07D200222146501E00F01EF80548FB
:1006A000046001E00120F2E70020F0E71C000020D8
:1006B000040000201800002070470146084600286A
:1006C00009DB00F01F0301229A4043099B0003F15C
:1006D000E023C3F8002100BF70472DE9F05F80469A
:1006E0000D461646002701F0EBFA074639462A4622
:1006F000334601F00700C0F1070ABAF1040F02D92E
:100700004FF0040A01E0C0F1070AD14600F1040AE3
:10071000BAF1070F02D24FF0000A01E0A0F1030A7C
:10072000D4464FF0010A0AFA09FAAAF1010A0AEAC4
:10073000020A0AFA0CFA4FF0010B0BFA0CFBABF1B0
:10074000010B0BEA030B4AEA0B042146404601F079
:10075000BFFABDE8F09F000000BF00F00702064BA3
:1007600019684FF6FF031940044B0B4343EA02217B
:10077000014B196000BF70470CED00E00000FA0566
:1007800070B504460D460CB9012070BD584800688C
:1007900000F00700A84209D255490D7008460068CC
:1007A00000F00700A84201D00120EEE7207800F019
:1007B000020002281DD1207800F00400042805D191
:1007C0004C48006840F4E0504A490860207800F046
:1007D0000800082805D14748006840F460404549B2
:1007E00008604448006820F0F000A16808434149CF
:1007F0000860207800F00100A8B36068012807D1E4
:100800003C4808380068C0F34040B8B90120BCE754
:100810006068022802D06068032807D1354808388C
:100820000068C0F3406048B90120AEE7314808389D
:100830000068C0F3400008B90120A6E72D48006811
:1008400020F00300616808432A490860FFF7E4FECE
:10085000064609E0FFF7E0FE801B41F2883188423E
:1008600002D9032091E707E02248006800F00C005D
:100870006168B0EB810FEDD11D48006800F0070002
:10088000A84209D91A490D700846006800F007000F
:10089000A84201D0012078E7207800F00400042865
:1008A00007D11448006820F4E050E168084311497A
:1008B0000860207800F00800082808D10D4800687A
:1008C00020F46040216940EAC1000A49086000F054
:1008D0003FF808490968C1F30311074A515CC84051
:1008E0000649086006480068FFF7C0FE00204CE794
:1008F000003C0240083802407C1F00080400002031
:100900001800002001480068704700000400002023
:1009100000B5FFF7F7FF04490968C1F38221034AD4
:10092000515CC84000BD0000083802408C1F000820
:1009300000B5FFF7E7FF04490968C1F34231034AF4
:10094000515CC84000BD0000083802408C1F000800
:100950002DE9F047002400250026A146254800681F
:1009600000F00C0020B1042805D008283AD105E099
:10097000DFF8849039E0DFF8849036E01D48001FEE
:10098000006800F03F041B48001F006800F480006E
:1009900078B11A481749091F0968C1F38811A0FBEB
:1009A00001700146224600233846FFF713FC054636
:1009B0000EE011480F49091F0968C1F38811A0FB17
:1009C00001700146224600233846FFF703FC054626
:1009D0000848001F0068C0F30140401C4600B5FBFA
:1009E000F6F902E0DFF8109000BF00BF4846BDE80E
:1009F000F0870000083802400024F40000127A005A
:100A0000F8B504460CB90120F8BD207800F00100CB
:100A1000002874D0F948006800F00C0004280DD0BC
:100A2000F648006800F00C00082813D1F348001FB6
:100A3000006800F48000B0F5800F0BD1EF48083853
:100A40000068C0F34040002859D06068002856D1A3
:100A50000120D9E700BF6068B0F5803F08D1E748C2
:100A60000838006840F48030E449083908601EE026
:100A70006068B0F5A02F0DD1E0480838006840F458
:100A80008020DE49083908600846006840F480305C
:100A900008600CE0D9480838006820F48030D74955
:100AA000083908600846006820F48020086000BF0C
:100AB000606890B1FFF7B0FD054606E0FFF7ACFDBA
:100AC000401B642801D903209EE7CC480838006801
:100AD000C0F340400028F1D011E0FFF79DFD05462E
:100AE00006E0FFF799FD401B642801D903208BE73E
:100AF000C24808380068C0F340400028F1D120788F
:100B000000F0020002285FD1BC48006800F00C0031
:100B100058B1BA48006800F00C0008281CD1B7484A
:100B2000001F006800F48000B0B9B44808380068BD
:100B3000C0F3400020B1E068012801D0012063E744
:100B4000AE480838006820F0F800216940EAC1008A
:100B5000AA490839086037E0E06800B30120A849D5
:100B60000860FFF759FD054606E0FFF755FD401BFD
:100B7000022801D9032047E7A04808380068C0F3DD
:100B800040000028F1D09D480838006820F0F800A7
:100B9000216940EAC10099490839086014E0002041
:100BA00097490860FFF738FD054606E0FFF734FD7A
:100BB000401B022801D9032026E790480838006826
:100BC000C0F340000028F1D1207800F00800082888
:100BD0002CD16069A8B101208A490860FFF71CFD8B
:100BE000054606E0FFF718FD401B022801D9032047
:100BF0000AE782486C300068C0F340000028F1D05A
:100C000014E000207F490860FFF706FD054606E076
:100C1000FFF702FD401B022801D90320F4E67748C4
:100C20006C300068C0F340000028F1D1207800F05B
:100C30000400042870D1002770483830006800F0A4
:100C4000805090B900BF002000906C483830006898
:100C500040F080506949383108600846006800F06B
:100C60008050009000BF00BF01276748006800F473
:100C70008070B0B96448006840F4807062490860D0
:100C8000FFF7CAFC054606E0FFF7C6FC401B02283A
:100C900001D90320B8E65C48006800F480700028A1
:100CA000F2D000BFA068012808D15448683000681D
:100CB00040F001005149683108601DE0A068052836
:100CC0000DD14E486830006840F004004B4968314F
:100CD00008600846006840F0010008600CE04748E2
:100CE0006830006820F00100444968310860084617
:100CF000006820F00400086000BFA068A8B1FFF7FA
:100D00008BFC054609E0FFF787FC401B41F2883168
:100D1000884202D9032077E626E038486830006828
:100D2000C0F340000028EED013E0FFF775FC054645
:100D300008E0FFF771FC401B41F28831884201D97D
:100D4000032061E62D4868300068C0F340000028A9
:100D5000EFD1012F07D129483830006820F08050AA
:100D600026493831086000BFA069002845D02348D3
:100D7000006800F00C0008285DD0A069022845D169
:100D800000201F490866FFF747FC054606E0FFF70D
:100D900043FC401B022801D9032035E617480838D8
:100DA0000068C0F340600028F1D1D4E9070108438E
:100DB000616A40EA81110122A06AC2EB500041EA57
:100DC00000412C20005D41EA00600C49091F0860C9
:100DD00001200B490866FFF71FFC054606E0FFF7F8
:100DE0001BFC401B022801D903200DE603480838EC
:100DF0000068C0F340600028F1D049E008380240A4
:100E000000004742800E4742007000400020214908
:100E10000866FFF701FC054606E0FFF7FDFB401BF7
:100E2000022801D90320EFE51B480068C0F34060A9
:100E30000028F2D12CE0A069012800D1E4E5164891
:100E4000001D0668A069012820D006F48001E06931
:100E500081421BD106F03F01206A814216D147F63C
:100E6000C0703040616AB0EB811F0FD106F4403191
:100E70000122A06AC2EB5000B1EB004F06D106F090
:100E800070612C20005DB1EB006F01D00120BBE54B
:100E90000020B9E5000047420038024070B5044622
:100EA0002546681EB0F1807F01D301200FE0681E47
:100EB0004FF0E02148610F214FF0FF3000F008FFB4
:100EC00000204FF0E021886107200861002070BDFC
:100ED000704770472DE9F84F044620680568206880
:100EE000C668206847694FF00009CA4605F00F0937
:100EF000B9F1000F0AD105F0200038B106F020004A
:100F000020B1204600F009FDBDE8F88FB9F1000FCF
:100F100072D007F0010018B906F4907000286BD069
:100F200005F0010030B106F4807018B1206C40F07B
:100F30000100206405F0040030B107F0010018B191
:100F4000206C40F00200206405F0020030B107F090
:100F5000010018B1206C40F00400206405F0080086
:100F600048B106F0200010B907F0010018B1206C5C
:100F700040F008002064206C70B305F0200028B118
:100F800006F0200010B1204600F0C7FC2068406940
:100F9000C0F3801A206C00F0080010B9BAF1000FFD
:100FA00023D0204600F08EFC2068406900F040000D
:100FB000402816D12068406920F04000216848612F
:100FC000A06B50B15648A16B0865A06BFFF7F9F90B
:100FD00010B1A06B016D88470CE02046FFF779FF48
:100FE00008E02046FFF775FF04E02046FFF771FF99
:100FF0000020206488E7FFE7206B012879D105F005
:101000001000002875D006F01000002871D000BF35
:1010100000200090206800680090206840680090E0
:1010200000BF00BF2068406900F04000402839D16F
:10103000A06B006840681FFA80F8B8F1000F30D04C
:10104000A08D40452DDDA4F82E80A06BC069B0F5C1
:10105000807F1FD02068C06820F480702168C8603D
:101060002068406920F001002168486120684069DB
:1010700020F0400021684861202084F83E000020D4
:1010800020632068C06820F010002168C860A06B51
:10109000FFF742F9A08DE28D801A81B22046FFF75A
:1010A00017FF31E7A08DE18D401A1FFA80F8E08D1F
:1010B000E8B1B8F1000F1AD02068C06820F4907031
:1010C0002168C8602068406920F0010021684861FB
:1010D000202084F83E00002020632068C06820F0B3
:1010E00010002168C86041462046FFF7F1FE0BE77B
:1010F000FFE705F0800030B106F0800018B120460F
:1011000000F0A3FD00E705F0400030B106F040001C
:1011100018B1204600F0F1FBF6E600BFF4E600004F
:10112000B118000810B504460CB9012010BDA06923
:1011300000B100E000BF94F83D0028B9002084F819
:101140003C00204600F028F8242084F83D00206868
:10115000C06820F400502168C860204600F03CFCC4
:101160002068006920F49040216808612068406987
:1011700020F02A00216848612068C06840F40050CF
:101180002168C86000202064202084F83D0084F895
:101190003E000020CAE7000010B586B004462E4984
:1011A0002068884255D100BF00BF002000902B4826
:1011B000006840F01000294908600846006800F007
:1011C0001000009000BF00BF00BF00BF00BF0020A4
:1011D000009022481438006840F001001F4914397B
:1011E00008600846006800F00100009000BF00BFE2
:1011F00000BF00BF00BF002000900846006840F01C
:10120000010008600846006800F00100009000BF7F
:1012100000BF00BF481501900220029001200390FA
:10122000022004900720059001A90D48FFF7DEF881
:101230004FF4806001900720059001A90848FFF74E
:10124000D5F82520FFF739FA032211462520FFF7AC
:1012500044FA06B010BD00000010014044380240BE
:101260000000024070B504460D46164694F83E0054
:10127000202816D105B10EB9012070BD00BF94F829
:101280003C00012801D10220F7E7012084F83C004E
:1012900000BF0020206332462946204600F0B2FC01
:1012A000EBE70220E9E7000010B50446204920687A
:1012B00088423BD11F48008800F4004088BB1D488D
:1012C000008800F4804070B11B4800780A2803D0E1
:1012D00000201849088024E01648008840F40040A7
:1012E000144908801DE0144800780D2806D11148E3
:1012F000008840F480400F49088012E00E480078D2
:101300000C490988C1F30D010C4A50540948008862
:10131000401C0849088008460088C72801DD0020D5
:101320000880012204490648FFF79CFF10BD000019
:1013300000100140100000201200002010060020C4
:10134000D8060020704700BFFEE7000010B500245B
:1013500001210A48FFF74CF968B9322000F0E2FC9D
:1013600000BF01210548FFF743F90028F9D03220DA
:1013700000F0D8FC0124204610BD0000000402400B
:1013800010B5002402210A48FFF732F968B932206B
:1013900000F0C8FC00BF02210548FFF729F900282A
:1013A000F9D0322000F0BEFC0124204610BD000020
:1013B0000004024010B5002404210A48FFF718F980
:1013C00068B9322000F0AEFC00BF04210548FFF7E9
:1013D0000FF90028F9D0322000F0A4FC01242046A7
:1013E00010BD00000004024010B5002401210A488D
:1013F000FFF7FEF868B9322000F094FC00BF01212D
:101400000548FFF7F5F80028F9D0322000F08AFCF3
:101410000124204610BD00000000024000BFFEE78E
:10142000704770B500240EE00021204600F0EBF874
:10143000002504E0002000F055F9681CC5B2802D9D
:10144000F8DB601CC4B2082CEEDB70BD00B587B0C1
:1014500000BF002001901248006840F002001049CF
:1014600008600846006800F00200019000BF00BF5D
:1014700011200390022005904FF4C050029002A961
:101480000848FEF7B3FF012211030648FFF7B8F83A
:101490000122D1020348FFF7B3F807B000BD0000F6
:1014A000303802400004024070B50546002415E0C3
:1014B0008020204100EA05024FF400610E48FFF74A
:1014C0009FF8012211030C48FFF79AF800224FF40D
:1014D00080510948FFF794F8601CC4B2082CE7DB80
:1014E000012211030448FFF78BF800224FF48051CA
:1014F0000148FFF785F870BD0004024010B50122D5
:10150000D1020A48FFF77CF8012211030748FFF7D0
:1015100077F800224FF400610448FFF771F80022C9
:101520004FF480510148FFF76BF810BD00040240F2
:1015300010B500224FF400610648FFF761F8012260
:1015400011030448FFF75CF80122D1020148FFF7BC
:1015500057F810BD0004024070B5002406E00025D5
:1015600000E06D1CB5F57A7FFBD3641CB4F57A7F7F
:10157000F5D3FFF76BFFAE2000F0A4F8D52000F004
:10158000A1F8802000F09EF8A82000F09BF83F20F2
:1015900000F098F8D32000F095F8002000F092F8C1
:1015A000402000F08FF8A12000F08CF8C82000F057
:1015B00089F8DA2000F086F8122000F083F8812004
:1015C00000F080F8CF2000F07DF8D92000F07AF804
:1015D000F12000F077F8DB2000F074F8302000F004
:1015E00071F8A42000F06EF8A62000F06BF88D20B2
:1015F00000F068F8142000F065F8AF2000F062F801
:10160000FFF70FFF70BD70B505460C4645F0B00002
:1016100000F058F8102141EA141000F053F804F0DB
:101620000F0000F04FF870BD2DE9F04105460E4661
:101630001746721ED206110E6A1E5206100EFFF7D2
:10164000E2FF002409E0A7F12001134A02EB011197
:10165000085D00F047F8601CC4B2082CF3DB721E72
:10166000D206110E6A1E012303EB4202D0B2FFF72D
:10167000CAFF00240BE0A7F12001074A02EB011288
:1016800004F10801505C00F02DF8601CC4B2082C75
:10169000F1DBBDE8F08100001D0000202DE9F041E4
:1016A00007460E461546002407E02A5D3019C1B2F0
:1016B0003846FFF7B9FF601CC4B2285D0028F4D19A
:1016C000BDE8F08110B50446FFF718FF7820FFF75A
:1016D000EBFE0020FFF7E8FE2046FFF7E5FEFFF7F0
:1016E00027FF10BD10B50446FFF708FF7820FFF76D
:1016F000DBFE4020FFF7D8FE2046FFF7D5FEFFF7C0
:1017000017FF10BD7047704710B5044601203E49D1
:1017100008703EA201210846FFF7C0FF3BA201214D
:101720000220FFF7BBFF39A201210320FFF7B6FF1C
:1017300036A201210420FFF7B1FF012C06D0022CB4
:1017400019D0032C2CD0042C54D13EE030A204211B
:101750000120FFF7A3FF2EA204210220FFF79EFF26
:101760002BA204210320FFF799FF29A20421084698
:10177000FFF794FF46E026A204210120FFF78EFF29
:1017800023A204210220FFF789FF21A204210320C4
:10179000FFF784FF1EA204210846FFF77FFF31E018
:1017A0001BA204210120FFF779FF19A204210220C6
:1017B000FFF774FF16A204210320FFF76FFF14A2A6
:1017C00004210846FFF76AFF1CE011A20421012052
:1017D000FFF764FF0EA204210220FFF75FFF0CA2B7
:1017E00004210320FFF75AFF09A204210846FFF74E
:1017F00055FF07E0FFF715FE06A204210120FFF7C1
:101800004DFF00BF00BF10BD010000203F000000E1
:101810003F3F3F003F3F3F7C0000000010B50020ED
:1018200016490870164800780A2190FBF1F201FB76
:101830001200052806DA13A2012113480078FFF7E9
:101840002DFF05E011A201210F480078FFF726FFC8
:101850000FA204210120FFF721FF0DA20421022085
:10186000FFF71CFF0AA204210320FFF717FF08A2BD
:1018700004210846FFF712FF10BD00000100002000
:10188000020000203F000000000000202020200077
:101890003F3F3F0010B5FEF7C5FE10BD034800688E
:1018A00040F47000014908607047000088ED00E0D6
:1018B00070B50546AC6B0020E085E0842046FFF75C
:1018C00008FB70BD0168C96821F490710268D1609D
:1018D0000168496921F0010102685161016B012928
:1018E00005D10168C96821F010010268D16020218A
:1018F00080F83E1000210163704710B5044620684F
:10190000C06820F040002168C860202084F83D00B5
:101910002046FFF717FD002010BD70B5044694F86F
:101920003E00222856D1A068B0F5805F0CD1206916
:1019300050B90025A66A20684068C0F308003080CE
:10194000A06A801CA06215E0A56A0026A068B0F518
:10195000805F03D0A06828B9206918B92068406862
:10196000287004E02068406800F07F002870A06ABA
:10197000401CA062E08D401E80B2E08540BB206824
:10198000C06820F020002168C8602068C06820F48A
:1019900080702168C8602068406920F001002168DB
:1019A0004861202084F83E00206B01280AD120687D
:1019B000C06820F010002168C860A18D2046FFF7A4
:1019C00087FA02E02046FFF76FFC0020206370BD1D
:1019D0000020FCE70220FAE72DE9F84F04462068D2
:1019E000006920F44050E1680843216808612169DA
:1019F000A068084361690843E169084300902068D2
:101A0000C06849F20C618843009908432168C860A6
:101A10002068406920F44070A1690843216848614A
:101A200076492068884203D075492068884203D1EE
:101A3000FEF77EFF814602E0FEF76AFF8146E0691D
:101A4000B0F5004F6CD102206168A0FB0150034645
:101A50001920A9FB007001462A463846FEF7BAFB5A
:101A60006421B0FBF1F04FEA001A02206168A0FB8C
:101A700001510B461920A9FB00712A463846FEF792
:101A8000A9FB834602206168A0FB01500346192090
:101A9000A9FB00712A463846FEF79CFB6421B0FB87
:101AA000F1F000EBC00101EB0010ABEB8000322144
:101AB00001EBC0006421B0FBF1F000F0F8000AEB8C
:101AC000400A02206168A0FB015003461920A9FBCF
:101AD000007001462A463846FEF77CFB834602200A
:101AE0006168A0FB015003461920A9FB00712A463A
:101AF0003846FEF76FFB6421B0FBF1F000EBC0014C
:101B000001EB0010ABEB8000322101EBC00064213F
:101B1000B0FBF1F000F007005044216888606AE0F3
:101B200004206168A0FB015003461920A9FB007046
:101B300001462A463846FEF74DFB8246042061687E
:101B4000A0FB015003461920A9FB007001462A465C
:101B50003846FEF73FFB6421B0FBF1F000EBC0011B
:101B600001EB0010AAEB8000322101EB0010642190
:101B7000B0FBF1F000F0F00A04206168A0FB0170F6
:101B800003461920A9FB00513A462846FEF722FBDE
:101B90006421B0FBF1F00AEB001A04206168A0FB9D
:101BA00001510B461920A9FB00712A463846FEF761
:101BB00011FB834604206168A0FB015003461920F5
:101BC000A9FB007001462A463846FEF703FB642154
:101BD000B0FBF1F000EBC00101EB0010ABEB8000BB
:101BE000322101EB00106421B0FBF1F000F00F0096
:101BF000504421688860BDE8F88F00000010014063
:101C00000014014010B5034699629A85DA850020D8
:101C10001864222083F83E0000BF002083F83C00B7
:101C200000BF1868C06840F480701C68E0601868E5
:101C3000406940F001001C6860611868C06840F0AD
:101C400020001C68E060002010BD014691F83D00B6
:101C5000212828D18868B0F5805F0BD1086948B980
:101C60000A6A1088C0F308000B685860086A801C74
:101C7000086205E00B6A581C086218780B68586007
:101C8000C88C401E80B2C88458B90868C06820F06B
:101C900080000B68D8600868C06840F040000B689E
:101CA000D860002070470220FCE7000010B5024811
:101CB000FFF710F910BD0000D806002000BFFEE7B6
:101CC00002480068C0F30220704700000CED00E0FD
:101CD00010B5002804DB0A07130E054A135406E06A
:101CE0000A07140E034A00F00F031B1FD45410BD43
:101CF00000E400E018ED00E002E008C8121F08C18F
:101D0000002AFAD170477047002001E001C1121F7C
:101D1000002AFBD1704700000149086070470000AD
:101D20000800002070B5034600224FF0E0267569D8
:101D30000D4E366803FB06F44FF0E026B16910E063
:101D40004FF0E026B06988420BD0884202D20E1ACA
:101D5000324402E02E1A0E4432440146A24200D31D
:101D600000E0EDE700BF70BD0800002000BFFEF7F7
:101D700065FC0723022208214FF4A87000F074F8D4
:101D8000A820FFF7C9FF4FF4E13000F0DBF8FFF7C0
:101D9000E3FB5FE030480078FF2805DA2E48007842
:101DA000401C2D49087002E000202B4908702B4888
:101DB0000078002835D1FFF7C9FA90B128A2012197
:101DC00028480078FFF76AFC26480078012805DDDE
:101DD00024480078401E2349087002E0042021496D
:101DE0000870FFF7CDFA90B11DA201211D480078BF
:101DF000FFF754FC1B480078042805DA19480078DE
:101E0000401C1849087002E0012016490870FFF7CD
:101E100005FDFFF7CFFAE8B112480078FFF774FC30
:101E200018E0FFF7E1FAA8B10DA201210846FFF77B
:101E300035FC0BA201210220FFF730FC08A2012192
:101E40000320FFF72BFC06A201210420FFF726FC4C
:101E5000FFF7E4FC9EE700000200002001000020E4
:101E600020200000000000202DE9F04192B08046C3
:101E70000C4615461E460027302106A8FEF7E2F95B
:101E8000142101A8FEF7DEF900BF002000902A48C7
:101E9000006840F08050284908600846006800F05B
:101EA0008050009000BF00BF00BF0020009023487A
:101EB000006840F48040214908600846006800F44A
:101EC0008040009000BF00BF0120069000040790F2
:101ED00002200C9041050D91CDF83C800E94109598
:101EE000119606A8FEF78CFD07461FB1012012B01F
:101EF000BDE8F0810F2001900220029000200390A5
:101F00004FF4A05004904FF480500590052101A893
:101F1000FEF736FC07460FB10120E8E7FEF776FB37
:101F200041F20101884205D10548006840F4807003
:101F3000034908600020DAE74038024000700040A2
:101F4000003C024010B5044609480A4908600846AA
:101F5000446000218160C160016181610C214161A7
:101F6000FFF7E0F8012204490248FFF77BF910BDB2
:101F700000100140D80600201200002000000000E0
:101F80000000000001020304060708090000000029
:101F900001020304B41F0008000000201006000026
:101FA000BC020008302300081006002010050000C5
:101FB000081D00084201031124F43210391CF1728B
:101FC000F83B3330261B0C0603912C40C0780311DC
:101FD0002C043F0403212D7088FC0829261820FFBB
:101FE000211E14F008F033E0184D211C031E11339C
:101FF0008870000C101E2123241927211010160EA2
:1020000045E018040225071820403D020418E06945
:102010002C20180707174080F08040403F02020143
:102020000F01022842F01D0101011F04912B80B015
:1020300066B1191D2901913A30CE492C146018045B
:102040003C6018061D1EE010080810721F0F1020BB
:1020500020100FF05310F83620203F20203C70084D
:1020600008C21E3028242221441E300888884808CF
:102070002E1820202011CC3BC02032270704242416
:102080003F241AF8202308084B19212036E0108835
:1020900088184B0F11101E380808C8382021523FED
:1020A0001A702E29608F1C222121221C90111D31B3
:1020B000222211901961CAC0C26A80C659081C4008
:1020C000201050170102040810204A4001114A0450
:1020D000012119152A403219251B0402F21B7048F0
:1020E000D13AF0501A360F1EC030C828E8702808C0
:1020F0000718272423140B6F2A387E280D203C2331
:10210000020227382008F888889F4B203FF01BC028
:10211000303F1B083830191019781B08F80F194088
:1021200039201B100F103E8888E8081010AC2320BF
:102130001810112A035E2940223829402C221E0241
:102140004019A41809F808203F21010121252A0877
:1021500052298129424149112EC08080807F0E2F53
:10216000F888C0281808501C0126382F2940292F2C
:1021700029801B20301012F81AF81413203F19027E
:1021800029204B30C0601A2074123F4BE010B06B16
:102190000F10B029D01AF0301980220179203F1891
:1021A000242438504FC04C888870C0140C30204B09
:1021B0007088C11738202121221C3A189F4A1882A2
:1021C00039A049D0112A1F90121F240878881BC8F3
:1021D00038151C07380E60191A1AF8201114033C20
:1021E0000714073C03481408186880806818082002
:1021F000302C03032C30200838C82F5950298F2940
:10220000102F203826212020681145FE02020225C9
:102210007F4040401A0CE0611C0106380B191D423A
:10222000FE191D527F1A04120211045A800119303E
:10223000D91D391621180819242222223F20AB3932
:102240000F115F3F112020110E21311A0E104B206B
:1022500011104B88F8102A10B359401A1F3F2B2237
:10226000130F16F0888888181A20D029D1497A21AE
:10227000176B94949493603960190F4C203F21F3AD
:1022800054809898793059121AC02719D1193039C9
:10229000311F203F24022D30212A0812893069D7AE
:1022A000294B2903190BC96079A019BF2B201FDD09
:1022B000390F9C80FFA1E0191229D03BA0FF0C39F7
:1022C00050194112208A01C01B3324012A190F3AE8
:1022D000E0413952290F392349603C103F202C2915
:1022E000053F010E3008060170291038080F300C28
:1022F000030C300F2C49A14E312E0E31200C2962D7
:102300001D818E70183059D1215721302C22213057
:1023100055807C0202443F404072FF39083C020273
:102320007C8F5440403FB0080601010202040400C3
:040000050800018965
:00000001FF
