:020000040800F2
:10000000C80A0020A1010008690400080D030008C7
:10001000650400083F0200085B0B000800000000B8
:10002000000000000000000000000000B50800080B
:10003000430200080000000091080008CD090008F4
:10004000BB010008BB010008BB010008BB010008A0
:10005000BB010008BB010008BB010008BB01000890
:10006000BB010008BB010008BB010008BB01000880
:10007000BB010008BB010008BB010008BB01000870
:10008000BB010008BB010008BB010008BB01000860
:10009000BB010008BB010008BB010008BB01000850
:1000A000BB010008BB010008BB010008BB01000840
:1000B000BB010008BB010008BB010008BB01000830
:1000C000BB010008BB010008BB010008BB01000820
:1000D000BB010008750A0008BB010008BB0100084D
:1000E000BB010008BB010008BB010008BB01000800
:1000F000BB010008BB010008BB010008BB010008F0
:10010000BB010008BB010008BB010008BB010008DF
:10011000BB010008BB010008BB010008BB010008CF
:10012000BB010008BB010008BB010008BB010008BF
:10013000BB010008BB010008BB010008BB010008AF
:10014000BB010008BB010008BB010008BB0100089F
:10015000BB010008BB010008BB010008BB0100088F
:10016000BB010008BB010008BB010008BB0100087F
:10017000BB010008BB010008BB010008BB0100086F
:10018000BB010008BB010008DFF810D000F01AF82E
:1001900000480047010C0008AFF30080C80A0020A7
:1001A0000648804706480047FEE7FEE7FEE7FEE711
:1001B000FEE7FEE7FEE7FEE7FEE7FEE70D0A0008C2
:1001C00089010008064C074D06E0E06840F0010395
:1001D00094E8070098471034AC42F6D3FFF7D8FFF5
:1001E00090140008B014000870B58C1810F8015B6A
:1001F00015F0070301D110F8013B2A1106D110F8C0
:10020000012B03E010F8016B01F8016B5B1EF9D1C3
:100210002B0705D40023521E0DD401F8013BFAE749
:1002200010F8013BCB1A921C03E013F8015B01F8B4
:10023000015B521EF9D5A142D8D3002070BD00BF8A
:10024000FEE7704710B56FF0040000F0ABFB15201F
:100250000149087010BD000000000020F0B50A46FA
:1002600000210023002400BF3DE0012505FA01F331
:10027000156805EA03049C4234D105684F00032643
:10028000BE40B543056015794E00B540066835435C
:1002900005601579012D02D01579022D16D18568DA
:1002A0004F000326BE40B543856055794E00B540EA
:1002B000866835438560456801268E40B5434560B4
:1002C000456896798E40B6B235434560C5684F00A3
:1002D0000326BE40B543C560D5794E00B540C6681B
:1002E0003543C560491C1029BFD3F0BD024600202C
:1002F00013690B400BB1012000E00020704701831F
:1003000070470AB1018300E04183704700BFFEE7F8
:100310001CB50121102000F0BDFA1C200090002027
:100320008DF8040001208DF8070069460948FFF7A1
:1003300095FF0121084600F0ADFA01200090002051
:100340008DF8040002208DF8070069460248FFF787
:1003500085FF1CBD001002400000024070B5FF2563
:1003600010212948FFF7C2FF08B1012000E000205A
:100370002649087008212448FFF7B8FF08B101207A
:1003800000E000202149487004211F48FFF7AEFF1C
:1003900008B1012000E000201C49887001211C48A0
:1003A000FFF7A4FF08B1012000E000201749C87042
:1003B00008460078012803D11648007800B90025C6
:1003C00012484078012803D11248407800B901252D
:1003D0000E488078012803D10E48807800B90225A4
:1003E0000A48C07820B90B48C078012800D10325FD
:1003F000002405E00548005D06490855601CC4B2AC
:10040000042CF7DB284670BD0010024008000020D5
:10041000000002400C0000201CB50121202000F04B
:1004200039FA01208DF804004FF4C06000900320D9
:100430008DF8050000208DF8060001208DF80700DA
:1004400069460748FFF70AFF4FF400710448FFF7B9
:1004500056FF4FF480610248FFF751FF1CBD0000BA
:100460000014024000BFFEE7704770B500240EE0A4
:100470000021204600F0E5F8002504E0002000F00F
:10048000F7F9681CC5B2802DF8DB601CC4B2082CDB
:10049000EEDB70BD1CB50121022000F0FBF901204C
:1004A0008DF8040002208DF805004FF4C070009014
:1004B00069460748FFF7D2FE012280210448FFF772
:1004C00020FF012211020248FFF71BFF1CBD0000A4
:1004D0000004024070B50546002414E0802020414D
:1004E00000EA05024FF480710D48FFF70AFF012270
:1004F00080210B48FFF705FF002280210848FFF705
:1005000000FF601CC4B2082CE8DB012280210448F3
:10051000FFF7F7FE002280210148FFF7F2FE70BDD1
:100520000004024010B5012211020A48FFF7E9FE5B
:10053000012280210748FFF7E4FE00224FF480717A
:100540000448FFF7DEFE002280210248FFF7D9FEB3
:1005500010BD00000004024010B500224FF480716D
:100560000648FFF7CEFE012280210448FFF7C9FEAE
:10057000012211020148FFF7C4FE10BD0004024031
:1005800070B5002406E0002500E06D1CB5F57A7F0B
:10059000FBD3641CB4F57A7FF5D3FFF77BFFAE2065
:1005A00000F056F9D52000F053F9802000F050F902
:1005B000A82000F04DF93F2000F04AF9D32000F0C8
:1005C00047F9002000F044F9402000F041F9A12053
:1005D00000F03EF9C82000F03BF9DA2000F038F9CD
:1005E000122000F035F9812000F032F9CF2000F020
:1005F0002FF9D92000F02CF9F12000F029F9DB20A7
:1006000000F026F9302000F023F9A42000F020F9B2
:10061000A62000F01DF98D2000F01AF9142000F03A
:1006200017F9AF2000F014F9FFF71FFF70BD10B5E8
:100630000246012000E050430B1EA1F10101FAD156
:1006400010BD70B505460C4645F0B00000F000F94D
:10065000102141EA141000F0FBF804F00F0000F044
:10066000F7F870BD2DE9F04105460E461746721E9B
:10067000D206110E6A1E5206100EFFF7E2FF00248A
:1006800009E0A7F12001134A02EB0111085D00F017
:10069000EFF8601CC4B2082CF3DB721ED206110EF8
:1006A0006A1E012303EB4202D0B2FFF7CAFF002407
:1006B0000BE0A7F12001074A02EB011204F1080147
:1006C000505C00F0D5F8601CC4B2082CF1DBBDE82A
:1006D000F0810000100000202DE9F84F8046894687
:1006E00017464FF0000ABB4603E00AF1010000F094
:1006F000FF0A1BF8011B0029F7D100246CE000253C
:1007000066E0C5EBC50000EB80003549085C395D4B
:1007100088425BD1C5EBC50000EB8000304908443E
:100720004178601C385C814250D1C5EBC50000EBBC
:1007300080002B4908448178A01C385C814245D157
:100740002101032091FBF0F1A9F1010001EBC000B0
:10075000C0B2A8F1010149060090080E0099FFF708
:1007600070FF00260BE0C5EBC50101EB81011C4ABF
:100770001144C91C885D00F07BF8701CC6B2102EB5
:10078000F1DB2001032190FBF1F1A9F1010001EB64
:10079000C000C0B2A8F10101012202EB41010090AA
:1007A000C8B20099FFF74DFF00260DE0C5EBC5016B
:1007B00001EB81010A4A1144C91C06F11002885C50
:1007C00000F056F8701CC6B2102EEFDB681CC5B2E4
:1007D000382D96D3E01CC4B2544590DBBDE8F88FA9
:1007E000E80C00082DE9F04780460E4617461D46E6
:1007F000002415E0281B411E0A20FFF718FFB7FB55
:10080000F0F00A21B0FBF1F201FB120000F1300917
:100810003019C1B24A464046FFF724FF601CC4B2FB
:10082000AC42E7DBBDE8F0872DE9F04107460E4614
:100830001546002407E02A5D3019C1B23846FFF79B
:1008400011FF601CC4B2285D0028F4D1BDE8F0811E
:1008500010B50446FFF766FE7820FFF73BFE002048
:10086000FFF738FE2046FFF735FEFFF775FE10BD97
:1008700010B50446FFF756FE7820FFF72BFE402008
:10088000FFF728FE2046FFF725FEFFF765FE10BDA7
:100890007047000029B1064A12680243044B1A60EF
:1008A00004E0034A12688243014B1A60704700005B
:1008B00030380240704700000CB5002001900090D5
:1008C0003448006840F480303249086000BF314845
:1008D000006800F4003000900198401C01900098DE
:1008E00018B90198B0F5A04FF1D12A48006800F47A
:1008F000003010B10120009001E00020009000982D
:10090000012846D123484030006840F080502149FA
:10091000403108602048006840F440401E490860AB
:100920001C48083000681B49083108600846006808
:1009300040F4004008600846006840F4A050086099
:100940001648091F0860081F006840F08070091FE2
:10095000086000BF0F48006800F000700028F9D060
:1009600040F205700E4908600A480830006820F01F
:1009700003000849083108600846006840F002009A
:10098000086000BF03480830006800F00C00082829
:10099000F8D10CBD0038024000700040195A4007E1
:1009A000003C0240042808D14FF0E021096941F0E1
:1009B00004014FF0E022116107E04FF0E0210969E6
:1009C00021F004014FF0E0221161704770470000F0
:1009D00010B504466FF00400FFF7E4FFE11704EBE5
:1009E0005171C1F3C701074A11701046007800EB3E
:1009F0004001C1EBC0104FF6FF7101EAC00002498F
:100A0000088010BD020000200400002010B5154829
:100A1000006840F47000134908601348006840F013
:100A200001001149086000200F49083108600E4894
:100A300000680E4908400C4908600D48091D08600F
:100A4000081F006820F48020091F08600020064964
:100A50000C310860FFF730FF4FF00060014980392A
:100A6000086010BD88ED00E000380240FFFFF6FE90
:100A70001030002410B540F225511D4800F03EF81A
:100A800010B31B4800F064F8C4B21A48008800F4A0
:100A90000040C8B91748008800F4804060B10A2CB3
:100AA00003D000201349088020E01248008840F459
:100AB00000401049088019E00D2C06D10D4800882F
:100AC00040F480400B49088010E00A480088C0F3D9
:100AD0000D0009490C5407480088401C054908804E
:100AE00008460088C72801DD0020088010BD0000EE
:100AF00000100140060000200006002070B50246EC
:100B0000002400230025002040F66A16B14200D1DF
:100B100000BFC1F3421501F01F03012606FA03F3DB
:100B2000012D02D19689334006E0022D02D1168AAA
:100B3000334001E0968A33400C12012606FA04F491
:100B40001688344013B10CB1012000E0002070BDC4
:100B500001468888C0F30800704700BFFEE702E046
:100B600008C8121F08C1002AFAD170477047002038
:100B700001E001C1121F002AFBD1704770B5044685
:100B80004FF4077094FBF0F0C6B24FF4077094FB7B
:100B9000F0F100FB114085B205E04FF4077000F062
:100BA00009F8701EC6B2002EF7D115B1284600F024
:100BB00001F870BD0146114A12884A434FF0E02304
:100BC0005A6100229A611A46126942F001021A61C2
:100BD00000BF4FF0E022106900F001021AB100F4EA
:100BE0008032002AF5D04FF0E022126922F0010293
:100BF0004FF0E0231A6100229A6170470400002040
:100C0000FFF720FBFFF784FBFFF706FCFFF7B8FCBC
:100C1000A820FFF7DDFE2CA205210120FFF75CFDD7
:100C20002DA205210220FFF7FFFD2EA207210320A0
:100C3000FFF7FAFD2BA20A210320FFF7F5FD14248C
:100C40000425372604273EE0FFF788FB30B1012852
:100C500007D0022808D003280CD108E0601CC4B2D9
:100C600009E0681CC5B206E0701CC6B203E0781E3D
:100C7000C7B200E000BF00BF701CC6B23C2E02DB52
:100C8000681CC5B200263C2D02DB601CC4B20024E7
:100C9000182C02DB00240025002602232246052111
:100CA0000320FFF79FFD02232A4608210320FFF7B8
:100CB00099FD022332460B210320FFF793FD4FF4E9
:100CC000C870FFF75BFFBFE7E58C97E4BAACE69727
:100CD000B6E997B40000000068682D4D4D2D5353C0
:100CE000000000003A000000E2978F00E0F8FCFCF2
:100CF000FEFEFEFEFEFCFCF8E0000000030F1F1FDE
:100D00003F3F3F3F3F1F1F0F030000E2978B00E074
:100D1000F81C040602020206041CF8E000000003AE
:100D20000F1C103020202030101C0F030000C2B711
:100D300000000000000000000000000000000000B3
:100D4000000000000000000003030000000000009D
:100D500000E28692808080808080808090A0E0C0C9
:100D6000C0808000000000000000000004020301B9
:100D700001000000E79C8100108886C0C0A0AF90F1
:100D800090888284080000010100FF4A4A4A4A4ACA
:100D90004A4A4AFF000000E5B8820008888888882F
:100DA00089FA888888888808000000003F000000D1
:100DB00000FF000010201F000000E5B1B10000F0AE
:100DC00000000000FF00000000F000000000003FF5
:100DD000202020203F202020207F000000E4B89C1D
:100DE0000008884828180FE80808080808080000C4
:100DF000002011090541817F010105091120000032
:100E0000E6B2B31060028C0004E42424E40404FC81
:100E100004040004047E0100000F04040F40807FDE
:100E2000000000E58D9704E4242464A4243F24A456
:100E3000642424E4040000FF00080909097F09096B
:100E40000948807F0000E6B9961060028C0088880F
:100E5000FF888800FE2222FE0004047E01001F0895
:100E600008089F601F42827F00E58C9700202020A9
:100E700020FF000000FF402010080000206020102C
:100E800010FF0000003F404040407800E5B9BF003F
:100E900000F808080808090E08080808080000807B
:100EA000601F00000000000000000000000000E8DB
:100EB000A5BF0202E22222FE222222FE2222E2021A
:100EC00002000000FF484443404040434444FF00C8
:100ED0000000E6B58E1060028C00040C94A546A4B8
:100EE000940C04040004047E010081611E000000D3
:100EF000FE01010100E58D9704E4242464A4243F4D
:100F000024A4642424E4040000FF00080909097FE4
:100F100009090948807F0000E99D924044545454D7
:100F200054547F5454545454444000000000FF155E
:100F30001515151555957F00000000E5B29B0000C2
:100F400000FC040416250424443C000000000000BA
:100F50001C1111111F1111115D81413F0000E6B7F5
:100F6000841060028C000814630814630814630082
:100F70000004047E0100FF4949497F494949FF00B7
:100F800000E58D9A2020FF2024F4545454FF54553A
:100F900056F404000000FF00080B1969090B498989
:100FA0007D0B0800E7839F807000FF1008FE42421F
:100FB00042FA424242FE00806018070810FF504883
:100FC0004641424C40FF00E58FB00040E0504844AD
:100FD00043404040485060C00000000000FE4242D4
:100FE0004242424242FE00000000E983918088892B
:100FF0008EF88C8B888000FE0222DA0600402010DA
:101000000C030408300000FF0810080700E5B79E35
:1010100000E000FF0020C000FE0020C000FF000034
:101020008140300F000000003F00000000FF000082
:10103000E5BC8080828282FE8282828282FE8282FF
:10104000828000008040300F0000000000FF0000A0
:10105000000000E5B081404848487F48484800907B
:101060001010FF10100040C444443F24242400000A
:1010700043807F000000E6B49B1060028C001008E3
:1010800014A744A4140C00000004047E010202FD15
:101090004544444445FD020200E998B300FE0222A3
:1010A000DA0600FC0404040404FC000000FF08103D
:1010B000080700FF4141414141FF0000E8AEB84050
:1010C0004042CC000020180F08F808080800000073
:1010D00000007F201001010101FF0101010100E674
:1010E000988C0000007F494949494949497F0000DF
:1010F00000000000FF494949494949494949FF0061
:101100000000E58D9704E4242464A4243F24A4640F
:101110002424E4040000FF00080909097F090909E3
:1011200048807F0000E5AE81201888888888898EF5
:101130008888888888281800000000000040807F88
:101140000000000000000000E69FB31010D0FF90E8
:1011500010FC0402F800FC0404FC00040300FF007F
:10116000018F44320F00FF04080700E5B79E00E03E
:1011700000FF0020C000FE0020C000FF00008140F2
:10118000300F000000003F00000000FF0000E6A15B
:10119000821010D0FF9010404444447F44444440A7
:1011A00000040300FF0003404444447F444444409F
:1011B00000E69E971010D0FF9010001010D0FFD0C6
:1011C00010101000040300FF001108040300FF00CA
:1011D00003040800E78E8900028282828282FE82F6
:1011E00082828282020000404040404040407F4076
:1011F00040445840404000E69E971010D0FF9010A9
:10120000001010D0FFD010101000040300FF0011D8
:1012100008040300FF0003040800E6ADA620202414
:101220002424A4242420FF20222C20200040C07E3F
:1012300040403F222220030C102040F800E6B189F4
:101240001060020CC0021EE2020202E21E00000058
:1012500004047C0380804020130C13204080800015
:10126000E5AE9C100C04E424242526242424E40464
:10127000140C004040407F494949494949497F4051
:10128000404000E6988C0000007F4949494949499F
:10129000497F000000000000FF4949494949494988
:1012A0004949FF000000E8A5840282BAAAAAEABA66
:1012B00083BAEAAAAABA82020048484A2A2AFF8ABE
:1012C0004A0A1F2A4A6A988800E998B300FE022257
:1012D000DA0600FC0404040404FC000000FF08100B
:1012E000080700FF4141414141FF0000E88D8604AD
:1012F0002424EF2424EF242404F80000FF000082BB
:1013000042320F0202FF0202020F40807F0000E51E
:10131000B79E00E000FF0020C000FE0020C000FFDC
:1013200000008140300F000000003F00000000FF7F
:101330000000E994994030EF246448487F484848C9
:101340007F4848400001017F211100FF4949494978
:1013500049FF000000E8AFAF4042CC0000809E9201
:10136000929292929E80000000007F2094844424F8
:10137000140F142444848400E79A8400F80C0B08AA
:1013800008F840308F080808F80000007F2121216C
:10139000217F0000004380403F0000E79C81001057
:1013A0008886C0C0A0AF90908882840800000101A8
:1013B00000FF4A4A4A4A4A4A4A4AFF000000E4BB40
:1013C000BD008060F8078040B08E80808798608084
:1013D00000010000FF008040300F0040807F0000CF
:1013E00000EFBC81000000FE0000000000000000D3
:1013F00000000000000000330000000000000000BA
:1014000000000000E58C970020202020FF00000055
:10141000FF4020100800002060201010FF00000096
:101420003F404040407800E4BAAC040404E4242483
:101430002526242424E4040404000040201B024246
:10144000827E0202020B10600000E697B600FC8468
:101450008484FC001010101010FF101000003F10CA
:1014600010103F0000010640807F000000E997B4A3
:1014700000F8010600F0121212F2020202FE000051
:1014800000FF0000001F1111111F0040807F0000AD
:10149000B01400080000002000060000E801000869
:1014A0002418000800060020C80400006E0B000885
:1014B000C1041401010172F84333301C100C0603FF
:1014C000912C40C07803112C043F0403212D708817
:1014D000FC0829261820FF211E14F008F033E0181C
:1014E0004D211C031E11338870000C101E21232473
:1014F0001927211010160E45E018040225071820A0
:10150000403D020418E0692C20180707174080F0BE
:101510008040403F0202010F0102285AF0BCAA1F7E
:10152000C02B80B066C9DD2901913A30CE492C1418
:101530006018043C6018061D1EE010080810721F99
:101540000F102020100FF05310F83620203F2020DD
:101550003C700808C21E3028242221441E3008880E
:101560008848082E1820202011CC3BC020322707A5
:101570000424243F241AF8202308084B192120367C
:10158000E0108888184B0F11101E380808C8382042
:1015900021523F1A702E29608F1C222121221C907B
:1015A000111D31222211901961CAC0C26A80C65928
:1015B000081C40201050170102040810204A400166
:1015C000114A04012119152A403219251B0402F27F
:1015D0001B7048D13AF0501A360F1EC030C828E8A8
:1015E0007028080718272423140B6F2A387E280D2B
:1015F000203C23020227382008F888889F4B203F90
:10160000F01BC0303F1B083830191019781B08F840
:101610000F194039201B100F103E8888E808101061
:10162000AC23201810112A035E2940223829402CAF
:10163000221E024019A41809F808203F21010121A7
:10164000252A0852298129424149112EC0808080D3
:101650007F0E2FF888C0281808501C0126382F2923
:1016600040292F29801B20301012F81AF81413205B
:101670003F190229204B30C0601A2074123F4BE002
:1016800010B06B0F10B029D01AF0301980220179F8
:10169000203F18242438504FC04C888870C0140C48
:1016A00030204B7088C11738202121221C3A189F06
:1016B0004A188239A049D0112A1F90121F24087895
:1016C000881BC838151C07380E60191A1AF8201123
:1016D00014033C0714073C0348140818688080680A
:1016E000180820302C03032C30200838C82F5950FC
:1016F000298F29102F203826212020681145FE022D
:101700000202257F4040401A0CE0611C0106380BA4
:10171000191D42FE191D527F1A04120211045A802B
:10172000011930D91D391621180819242222223F07
:1017300020AB390F115F3F112020110E21311A0EFD
:10174000104B2011104B88F8102A10B359401A1F63
:101750003F2B22130F16F0888888181A20D029D121
:10176000497A21176B94949493603960190F4C2037
:101770003F21F354809898793059121AC02719D113
:10178000193039311F203F24022D30212A081289B7
:101790003069D7294B2903190BC96079A019BF2BD0
:1017A000201FDD390F9C80FFA1E0191229D03BA03A
:1017B000FF0C3950194112208A01C01B3324012A21
:1017C000190F3AE0413952290F392349603C103F43
:1017D000202C29053F010E30080601702910380819
:1017E0000F300C030C300F2C49A14E312E0E31203E
:1017F0000C29621D818E70183059D1215721302C4F
:1018000022213055807C0202443F404072FF39085B
:101810003C02027C8F5440403F80080601010202D6
:0418200004040000BC
:040000050800018965
:00000001FF
