:020000040800F2
:1000000000040020A1010008F7010008EF0100082A
:10001000F3010008E9010008550300080000000092
:10002000000000000000000000000000FB010008CC
:10003000ED01000800000000F9010008E9020008D5
:10004000BB010008BB010008BB010008BB010008A0
:10005000BB010008BB010008BB010008BB01000890
:10006000BB010008BB010008BB010008BB01000880
:10007000BB010008BB010008BB010008BB01000870
:10008000BB010008BB010008BB010008BB01000860
:10009000BB010008BB010008BB010008BB01000850
:1000A000BB010008BB010008BB010008BB01000840
:1000B000BB010008BB010008BB010008BB01000830
:1000C000BB010008BB010008BB010008BB01000820
:1000D000BB010008BB010008BB010008BB01000810
:1000E000BB010008BB010008BB010008BB01000800
:1000F000BB010008BB010008BB010008BB010008F0
:10010000BB010008BB010008BB010008BB010008DF
:10011000BB010008BB010008BB010008BB010008CF
:10012000BB010008BB010008BB010008BB010008BF
:10013000BB010008BB010008BB010008BB010008AF
:10014000BB010008BB010008BB010008BB0100089F
:10015000BB010008BB010008BB010008BB0100088F
:10016000BB010008BB010008BB010008BB0100087F
:10017000BB010008BB010008BB010008BB0100086F
:10018000BB010008BB010008DFF810D000F01AF82E
:100190000048004777030008AFF300800004002008
:1001A0000648804706480047FEE7FEE7FEE7FEE711
:1001B000FEE7FEE7FEE7FEE7FEE7FEE7ED020008EA
:1001C00089010008064C074D06E0E06840F0010395
:1001D00094E8070098471034AC42F6D3FFF7D8FFF5
:1001E0007C0300088C03000800BFFEE7704700BFD7
:1001F000FEE700BFFEE77047704770470CB5002070
:10020000019000903448006840F480303249086022
:1002100000BF3148006800F4003000900198401C95
:100220000190009818B90198B0F5A04FF1D12A4873
:10023000006800F4003010B10120009001E00020BF
:1002400000900098012846D123484030006840F0D3
:1002500080502149403108602048006840F4404007
:100260001E4908601C48083000681B4908310860B6
:100270000846006840F4004008600846006840F402
:10028000A05008601648091F0860081F006840F069
:100290008070091F086000BF0F48006800F0007000
:1002A0000028F9D040F205700E4908600A4808306D
:1002B000006820F00300084908310860084600681B
:1002C00040F00200086000BF03480830006800F0FA
:1002D0000C000828F8D10CBD003802400070004026
:1002E00008544007003C02407047000010B5154814
:1002F000006840F47000134908601348006840F03B
:1003000001001149086000200F49083108600E48BB
:1003100000680E4908400C4908600D48091D086036
:10032000081F006820F48020091F0860002006498B
:100330000C310860FFF762FF4FF00060014980391F
:10034000086010BD88ED00E000380240FFFFF6FEB7
:100350001030002400BFFEE702E008C8121F08C1E9
:10036000002AFAD170477047002001E001C1121F36
:10037000002AFBD1704700BFFEE700008C03000895
:0C038000000000200004000068030008DA
:040000050800018965
:00000001FF
